{
  "_format": "hh-sol-artifact-1",
  "contractName": "IDOFactory",
  "sourceName": "contracts/IDOFactory.sol",
  "abi": [
    {
      "inputs": [
        {
          "internalType": "uint256",
          "name": "_feeAmount",
          "type": "uint256"
        },
        {
          "internalType": "address",
          "name": "_admin",
          "type": "address"
        }
      ],
      "stateMutability": "nonpayable",
      "type": "constructor"
    },
    {
      "anonymous": false,
      "inputs": [
        {
          "indexed": false,
          "internalType": "uint256",
          "name": "newBurnPercent",
          "type": "uint256"
        },
        {
          "indexed": false,
          "internalType": "uint256",
          "name": "divider",
          "type": "uint256"
        }
      ],
      "name": "BurnPercentUpdated",
      "type": "event"
    },
    {
      "anonymous": false,
      "inputs": [
        {
          "indexed": false,
          "internalType": "uint256",
          "name": "newFeeAmount",
          "type": "uint256"
        }
      ],
      "name": "FeeAmountUpdated",
      "type": "event"
    },
    {
      "anonymous": false,
      "inputs": [
        {
          "indexed": false,
          "internalType": "address",
          "name": "newFeeWallet",
          "type": "address"
        }
      ],
      "name": "FeeWalletUpdated",
      "type": "event"
    },
    {
      "anonymous": false,
      "inputs": [
        {
          "indexed": true,
          "internalType": "address",
          "name": "owner",
          "type": "address"
        },
        {
          "indexed": false,
          "internalType": "address",
          "name": "idoPool",
          "type": "address"
        },
        {
          "indexed": true,
          "internalType": "address",
          "name": "rewardToken",
          "type": "address"
        },
        {
          "indexed": false,
          "internalType": "string",
          "name": "tokenURI",
          "type": "string"
        },
        {
          "indexed": false,
          "internalType": "address",
          "name": "nonfungiblePositionManager",
          "type": "address"
        },
        {
          "indexed": false,
          "internalType": "address",
          "name": "router",
          "type": "address"
        },
        {
          "indexed": false,
          "internalType": "address",
          "name": "factory",
          "type": "address"
        },
        {
          "indexed": false,
          "internalType": "bool",
          "name": "mode",
          "type": "bool"
        }
      ],
      "name": "IDOCreated",
      "type": "event"
    },
    {
      "anonymous": false,
      "inputs": [
        {
          "indexed": false,
          "internalType": "uint256",
          "name": "tokenPrice",
          "type": "uint256"
        },
        {
          "indexed": false,
          "internalType": "uint256",
          "name": "softCap",
          "type": "uint256"
        },
        {
          "indexed": false,
          "internalType": "uint256",
          "name": "hardCap",
          "type": "uint256"
        },
        {
          "indexed": false,
          "internalType": "uint256",
          "name": "minEthPayment",
          "type": "uint256"
        },
        {
          "indexed": false,
          "internalType": "uint256",
          "name": "maxEthPayment",
          "type": "uint256"
        },
        {
          "indexed": false,
          "internalType": "uint256",
          "name": "listingPrice",
          "type": "uint256"
        },
        {
          "indexed": false,
          "internalType": "uint256",
          "name": "lpInterestRate",
          "type": "uint256"
        }
      ],
      "name": "IDOCreatedInfoP",
      "type": "event"
    },
    {
      "anonymous": false,
      "inputs": [
        {
          "indexed": false,
          "internalType": "uint256",
          "name": "startTimestamp",
          "type": "uint256"
        },
        {
          "indexed": false,
          "internalType": "uint256",
          "name": "endTimestamp",
          "type": "uint256"
        },
        {
          "indexed": false,
          "internalType": "uint256",
          "name": "unlockTimestamp",
          "type": "uint256"
        },
        {
          "indexed": false,
          "internalType": "uint256",
          "name": "claimCycle",
          "type": "uint256"
        },
        {
          "indexed": false,
          "internalType": "uint256",
          "name": "claimPeriod",
          "type": "uint256"
        },
        {
          "indexed": false,
          "internalType": "uint256",
          "name": "percentClaimFisrtTime",
          "type": "uint256"
        }
      ],
      "name": "IDOCreatedTime",
      "type": "event"
    },
    {
      "anonymous": false,
      "inputs": [
        {
          "indexed": true,
          "internalType": "address",
          "name": "previousOwner",
          "type": "address"
        },
        {
          "indexed": true,
          "internalType": "address",
          "name": "newOwner",
          "type": "address"
        }
      ],
      "name": "OwnershipTransferred",
      "type": "event"
    },
    {
      "anonymous": false,
      "inputs": [
        {
          "indexed": false,
          "internalType": "address",
          "name": "newFeeToken",
          "type": "address"
        }
      ],
      "name": "TokenFeeUpdated",
      "type": "event"
    },
    {
      "inputs": [],
      "name": "admin",
      "outputs": [
        {
          "internalType": "address",
          "name": "",
          "type": "address"
        }
      ],
      "stateMutability": "view",
      "type": "function"
    },
    {
      "inputs": [
        {
          "internalType": "contract ERC20",
          "name": "_rewardToken",
          "type": "address"
        },
        {
          "components": [
            {
              "internalType": "uint256",
              "name": "tokenPrice",
              "type": "uint256"
            },
            {
              "internalType": "uint256",
              "name": "softCap",
              "type": "uint256"
            },
            {
              "internalType": "uint256",
              "name": "hardCap",
              "type": "uint256"
            },
            {
              "internalType": "uint256",
              "name": "minEthPayment",
              "type": "uint256"
            },
            {
              "internalType": "uint256",
              "name": "maxEthPayment",
              "type": "uint256"
            },
            {
              "internalType": "uint256",
              "name": "listingPrice",
              "type": "uint256"
            },
            {
              "internalType": "uint256",
              "name": "lpInterestRate",
              "type": "uint256"
            },
            {
              "internalType": "uint256",
              "name": "claimCycle",
              "type": "uint256"
            },
            {
              "internalType": "uint256",
              "name": "percentClaimfromSecondTime",
              "type": "uint256"
            },
            {
              "internalType": "uint256",
              "name": "percentClaimFisrtTime",
              "type": "uint256"
            }
          ],
          "internalType": "struct IDOPool.FinInfo",
          "name": "_finInfo",
          "type": "tuple"
        },
        {
          "components": [
            {
              "internalType": "uint256",
              "name": "startTimestamp",
              "type": "uint256"
            },
            {
              "internalType": "uint256",
              "name": "endTimestamp",
              "type": "uint256"
            },
            {
              "internalType": "uint256",
              "name": "unlockTimestamp",
              "type": "uint256"
            }
          ],
          "internalType": "struct IDOPool.Timestamps",
          "name": "_timestamps",
          "type": "tuple"
        },
        {
          "components": [
            {
              "internalType": "address",
              "name": "nonfungiblePositionManager",
              "type": "address"
            },
            {
              "internalType": "address",
              "name": "router",
              "type": "address"
            },
            {
              "internalType": "address",
              "name": "factory",
              "type": "address"
            },
            {
              "internalType": "address",
              "name": "weth",
              "type": "address"
            },
            {
              "internalType": "int24",
              "name": "tickLower",
              "type": "int24"
            },
            {
              "internalType": "int24",
              "name": "tickUpper",
              "type": "int24"
            },
            {
              "internalType": "uint160",
              "name": "currentSqrtP",
              "type": "uint160"
            },
            {
              "internalType": "int24[2]",
              "name": "ticksPrevious",
              "type": "int24[2]"
            },
            {
              "internalType": "bool",
              "name": "fee",
              "type": "bool"
            }
          ],
          "internalType": "struct IDOPool.DEXInfo",
          "name": "_dexInfo",
          "type": "tuple"
        },
        {
          "internalType": "address",
          "name": "_lockerFactoryAddress",
          "type": "address"
        },
        {
          "internalType": "string",
          "name": "_metadataURL",
          "type": "string"
        },
        {
          "internalType": "bool",
          "name": "mode",
          "type": "bool"
        }
      ],
      "name": "createIDO",
      "outputs": [],
      "stateMutability": "payable",
      "type": "function"
    },
    {
      "inputs": [],
      "name": "feeAmount",
      "outputs": [
        {
          "internalType": "uint256",
          "name": "",
          "type": "uint256"
        }
      ],
      "stateMutability": "view",
      "type": "function"
    },
    {
      "inputs": [],
      "name": "feeWallet",
      "outputs": [
        {
          "internalType": "address",
          "name": "",
          "type": "address"
        }
      ],
      "stateMutability": "view",
      "type": "function"
    },
    {
      "inputs": [],
      "name": "owner",
      "outputs": [
        {
          "internalType": "address",
          "name": "",
          "type": "address"
        }
      ],
      "stateMutability": "view",
      "type": "function"
    },
    {
      "inputs": [],
      "name": "renounceOwnership",
      "outputs": [],
      "stateMutability": "nonpayable",
      "type": "function"
    },
    {
      "inputs": [
        {
          "internalType": "address",
          "name": "_admin",
          "type": "address"
        }
      ],
      "name": "setAddAdmin",
      "outputs": [],
      "stateMutability": "nonpayable",
      "type": "function"
    },
    {
      "inputs": [
        {
          "internalType": "uint256",
          "name": "_newFeeAmount",
          "type": "uint256"
        }
      ],
      "name": "setFeeAmount",
      "outputs": [],
      "stateMutability": "nonpayable",
      "type": "function"
    },
    {
      "inputs": [
        {
          "internalType": "address",
          "name": "_newFeeWallet",
          "type": "address"
        }
      ],
      "name": "setFeeWallet",
      "outputs": [],
      "stateMutability": "nonpayable",
      "type": "function"
    },
    {
      "inputs": [
        {
          "internalType": "address",
          "name": "newOwner",
          "type": "address"
        }
      ],
      "name": "transferOwnership",
      "outputs": [],
      "stateMutability": "nonpayable",
      "type": "function"
    }
  ],
  "bytecode": "0x608060405234801561001057600080fd5b50604051620058de380380620058de833981016040819052610031916100b4565b61003a33610064565b600291909155600380546001600160a01b0319166001600160a01b039092169190911790556100f1565b600080546001600160a01b038381166001600160a01b0319831681178455604051919092169283917f8be0079c531659141344cd1fd0a4f28419497f9722a3daafe3b4186f6b6457e09190a35050565b600080604083850312156100c757600080fd5b825160208401519092506001600160a01b03811681146100e657600080fd5b809150509250929050565b6157dd80620001016000396000f3fe6080604052600436106200009d5760003560e01c80638da5cb5b11620000605780638da5cb5b146200014857806390d49b9d146200017c578063f25f4b5614620001a1578063f2fde38b14620001c3578063f851a44014620001e857600080fd5b80631f26a71914620000a2578063607e086e14620000bb57806369e1540414620000e05780636b392680146200010b578063715018a61462000130575b600080fd5b620000b9620000b336600462000f20565b6200020a565b005b348015620000c857600080fd5b50620000b9620000da36600462001056565b6200075b565b348015620000ed57600080fd5b50620000f860025481565b6040519081526020015b60405180910390f35b3480156200011857600080fd5b50620000b96200012a3660046200107d565b62000787565b3480156200013d57600080fd5b50620000b9620007cd565b3480156200015557600080fd5b506000546001600160a01b03165b6040516001600160a01b03909116815260200162000102565b3480156200018957600080fd5b50620000b96200019b36600462001056565b620007e5565b348015620001ae57600080fd5b5060015462000163906001600160a01b031681565b348015620001d057600080fd5b50620000b9620001e236600462001056565b6200083e565b348015620001f557600080fd5b5060035462000163906001600160a01b031681565b600087878787878787600360009054906101000a90046001600160a01b0316604051620002379062000c0e565b6200024a989796959493929190620011bc565b604051809103906000f08015801562000267573d6000803e3d6000fd5b5090506000886001600160a01b031663313ce5676040518163ffffffff1660e01b8152600401602060405180830381865afa158015620002ab573d6000803e3d6000fd5b505050506040513d601f19601f82011682018060405250810190620002d19190620012bf565b90506000620002ea89604001518a6000015184620008bd565b905060008960c0015111801562000305575060008960a00151115b156200034f57620003406127108a60c001518b60400151620003289190620012fa565b6200033491906200131a565b8a60a0015184620008bd565b6200034c90826200133d565b90505b61010087015115156000036200038857620003796127108a6040015160c8620003289190620012fa565b6200038590826200133d565b90505b60405163095ea7b360e01b81526001600160a01b03848116600483015260001960248301528b169063095ea7b3906044016020604051808303816000875af1158015620003d9573d6000803e3d6000fd5b505050506040513d601f19601f82011682018060405250810190620003ff919062001353565b620004425760405162461bcd60e51b815260206004820152600e60248201526d185c1c1c9bdd994819985a5b195960921b60448201526064015b60405180910390fd5b60405163f2fde38b60e01b81523360048201526001600160a01b0384169063f2fde38b90602401600060405180830381600087803b1580156200048457600080fd5b505af115801562000499573d6000803e3d6000fd5b50620004b5925050506001600160a01b038b16338584620008ec565b896001600160a01b0316336001600160a01b03167f25a750add4cf85cb84319826849d3831e1a9d4e45664a3cf35637eb92d0b824c85888b600001518c602001518d604001518b604051620005109695949392919062001373565b60405180910390a37fb93f4d78d64fb22ec5bc28bfe9d93c32a0f055026bca1941fc8616818c59112689600001518a602001518b604001518c606001518d608001518e60a001518f60c001516040516200059b9796959493929190968752602087019590955260408601939093526060850191909152608084015260a083015260c082015260e00190565b60405180910390a17f17078c8c07e14e63fd9b4c8a8fdf203dfede55f7675647e7deebe650e4b6bc7a886000015189602001518a604001518c60e001518d61010001518e61012001516040516200061a96959493929190958652602086019490945260408501929092526060840152608083015260a082015260c00190565b60405180910390a1600254156200074f573460025414620006a45760405162461bcd60e51b815260206004820152603c60248201527f5468652066656520616d6f756e74206d7573742062652073657420746f20746860448201527f652073616d652076616c7565206173207468652073657474696e672e00000000606482015260840162000439565b6001546002546040516000926001600160a01b031691908381818185875af1925050503d8060008114620006f5576040519150601f19603f3d011682016040523d82523d6000602084013e620006fa565b606091505b50509050806200074d5760405162461bcd60e51b815260206004820152601c60248201527f5472616e73666572206574685769746864726177206661696c65642e00000000604482015260640162000439565b505b50505050505050505050565b620007656200094e565b600380546001600160a01b0319166001600160a01b0392909216919091179055565b620007916200094e565b60028190556040518181527fbb128cd9921d003aff00ed910fe24b1655b2bf1f4a2090cc3523f61bdc172316906020015b60405180910390a150565b620007d76200094e565b620007e36000620009aa565b565b620007ef6200094e565b600180546001600160a01b0319166001600160a01b0383169081179091556040519081527f29acee77dafcfa0143d74a7ea236018f3a6e1fa71e27fc59bbfbc6b8ca8edccd90602001620007c2565b620008486200094e565b6001600160a01b038116620008af5760405162461bcd60e51b815260206004820152602660248201527f4f776e61626c653a206e6577206f776e657220697320746865207a65726f206160448201526564647265737360d01b606482015260840162000439565b620008ba81620009aa565b50565b6000620008cc82600a620014bd565b620008d884866200131a565b620008e49190620012fa565b949350505050565b604080516001600160a01b0385811660248301528416604482015260648082018490528251808303909101815260849091019091526020810180516001600160e01b03166323b872dd60e01b17905262000948908590620009fa565b50505050565b6000546001600160a01b03163314620007e35760405162461bcd60e51b815260206004820181905260248201527f4f776e61626c653a2063616c6c6572206973206e6f7420746865206f776e6572604482015260640162000439565b600080546001600160a01b038381166001600160a01b0319831681178455604051919092169283917f8be0079c531659141344cd1fd0a4f28419497f9722a3daafe3b4186f6b6457e09190a35050565b600062000a51826040518060400160405280602081526020017f5361666545524332303a206c6f772d6c6576656c2063616c6c206661696c6564815250856001600160a01b031662000adb9092919063ffffffff16565b905080516000148062000a7557508080602001905181019062000a75919062001353565b62000ad65760405162461bcd60e51b815260206004820152602a60248201527f5361666545524332303a204552433230206f7065726174696f6e20646964206e6044820152691bdd081cdd58d8d9595960b21b606482015260840162000439565b505050565b6060620008e4848460008585600080866001600160a01b0316858760405162000b059190620014ce565b60006040518083038185875af1925050503d806000811462000b44576040519150601f19603f3d011682016040523d82523d6000602084013e62000b49565b606091505b509150915062000b5c8783838762000b67565b979650505050505050565b6060831562000bdb57825160000362000bd3576001600160a01b0385163b62000bd35760405162461bcd60e51b815260206004820152601d60248201527f416464726573733a2063616c6c20746f206e6f6e2d636f6e7472616374000000604482015260640162000439565b5081620008e4565b620008e4838381511562000bf25781518083602001fd5b8060405162461bcd60e51b8152600401620004399190620014ec565b6142a6806200150283390190565b6001600160a01b0381168114620008ba57600080fd5b634e487b7160e01b600052604160045260246000fd5b604051610120810167ffffffffffffffff8111828210171562000c6f5762000c6f62000c32565b60405290565b604051610140810167ffffffffffffffff8111828210171562000c6f5762000c6f62000c32565b60006060828403121562000caf57600080fd5b6040516060810181811067ffffffffffffffff8211171562000cd55762000cd562000c32565b80604052508091508235815260208301356020820152604083013560408201525092915050565b803562000d098162000c1c565b919050565b8035600281900b811462000d0957600080fd5b600082601f83011262000d3357600080fd5b6040516040810181811067ffffffffffffffff8211171562000d595762000d5962000c32565b806040525080604084018581111562000d7157600080fd5b845b8181101562000d965762000d878162000d0e565b83526020928301920162000d73565b509195945050505050565b8015158114620008ba57600080fd5b803562000d098162000da1565b6000610140828403121562000dd157600080fd5b62000ddb62000c48565b905062000de88262000cfc565b815262000df86020830162000cfc565b602082015262000e0b6040830162000cfc565b604082015262000e1e6060830162000cfc565b606082015262000e316080830162000d0e565b608082015262000e4460a0830162000d0e565b60a082015262000e5760c0830162000cfc565b60c082015262000e6b8360e0840162000d21565b60e082015262000e7f610120830162000db0565b61010082015292915050565b600082601f83011262000e9d57600080fd5b813567ffffffffffffffff8082111562000ebb5762000ebb62000c32565b604051601f8301601f19908116603f0116810190828211818310171562000ee65762000ee662000c32565b8160405283815286602085880101111562000f0057600080fd5b836020870160208301376000602085830101528094505050505092915050565b600080600080600080600087890361036081121562000f3e57600080fd5b883562000f4b8162000c1c565b9750610140601f19820181131562000f6257600080fd5b62000f6c62000c75565b915060208a0135825260408a0135602083015260608a0135604083015260808a0135606083015260a08a0135608083015260c08a013560a083015260e08a013560c0830152610100808b013560e0840152610120808c013582850152828c0135818501525050508096505062000fe7896101608a0162000c9c565b945062000ff9896101c08a0162000dbd565b93506200100a610300890162000cfc565b925061032088013567ffffffffffffffff8111156200102857600080fd5b620010368a828b0162000e8b565b92505062001048610340890162000db0565b905092959891949750929550565b6000602082840312156200106957600080fd5b8135620010768162000c1c565b9392505050565b6000602082840312156200109057600080fd5b5035919050565b8060005b6002808210620010ac575062000948565b8251900b8452602093840193909101906001016200109b565b80516001600160a01b039081168352602080830151821690840152604080830151821690840152606080830151918216908401525060808101516200110f608084018260020b9052565b5060a08101516200112560a084018260020b9052565b5060c08101516200114160c08401826001600160a01b03169052565b5060e08101516200115660e084018262001097565b50610100015115156101209190910152565b60005b83811015620011855781810151838201526020016200116b565b50506000910152565b60008151808452620011a881602086016020860162001168565b601f01601f19169290920160200192915050565b600061038060018060a01b038b1683528951602084015260208a0151604084015260408a0151606084015260608a0151608084015260808a015160a084015260a08a015160c084015260c08a015160e084015260e08a01516101008181860152808c01519150506101208181860152808c015161014086015250506200125a61016084018a8051825260208082015190830152604090810151910152565b6200126a6101c0840189620010c5565b6001600160a01b038716610300840152806103208401526200128f818401876200118e565b915050620012a261034083018515159052565b6001600160a01b0383166103608301529998505050505050505050565b600060208284031215620012d257600080fd5b815160ff811681146200107657600080fd5b634e487b7160e01b600052601160045260246000fd5b8082028115828204841417620013145762001314620012e4565b92915050565b6000826200133857634e487b7160e01b600052601260045260246000fd5b500490565b80820180821115620013145762001314620012e4565b6000602082840312156200136657600080fd5b8151620010768162000da1565b600060018060a01b03808916835260c060208401526200139760c08401896200118e565b968116604084015294851660608301525091909216608082015290151560a09091015292915050565b600181815b8085111562001401578160001904821115620013e557620013e5620012e4565b80851615620013f357918102915b93841c9390800290620013c5565b509250929050565b6000826200141a5750600162001314565b81620014295750600062001314565b81600181146200144257600281146200144d576200146d565b600191505062001314565b60ff841115620014615762001461620012e4565b50506001821b62001314565b5060208310610133831016604e8410600b841016171562001492575081810a62001314565b6200149e8383620013c0565b8060001904821115620014b557620014b5620012e4565b029392505050565b60006200107660ff84168362001409565b60008251620014e281846020870162001168565b9190910192915050565b6020815260006200107660208301846200118e56fe6080604052601d805461ffff60a01b191690556276a7006025553480156200002657600080fd5b50604051620042a6380380620042a6833981016040819052620000499162000889565b620000543362000351565b60018055600280546001600160a01b0319166001600160a01b038a169081179091556040805163313ce56760e01b8152905163313ce567916004808201926020929091908290030181865afa158015620000b2573d6000803e3d6000fd5b505050506040513d601f19601f82011682018060405250810190620000d89190620009d2565b60ff16600355601980546001600160a01b038087166001600160a01b0319909216919091179091558751600555602088015160065560408801516007556060880151600855608088015160095560a0880151600a5560c0880151600b5560e0880151600c5561010088810151600d55610120890151600e5560278054918801511515600160a01b026001600160a81b0319909216928416929092171790556200018186620003a1565b60e08701516200019390603c62000a14565b6025558451601280546001600160a01b03199081166001600160a01b039384161782556020880151601380548316918516919091179055604088015160148054831691851691909117905560608801516015805460808b015160a08c01519387166001600160b81b031990921691909117600160a01b62ffffff928316021762ffffff60b81b1916600160b81b919093160291909117905560c08801516016805490921693169290921790915560e086015186919062000258906017906002620004ac565b5061010091909101516006909101805491151560ff19909216919091179055601254601d80546001600160a01b0319166001600160a01b03909216919091179055620002a4836200049a565b6024805460ff1916831515179055600e54600090620002c69061271062000a34565b9050600181156200033e57600d54600090620002e3908462000a60565b9050806000036200031157600d54620002fd908462000a77565b62000309908362000a8e565b91506200033c565b600d5462000320908462000a77565b6200032d90600162000a8e565b62000339908362000a8e565b91505b505b6026555062000bff975050505050505050565b600080546001600160a01b038381166001600160a01b0319831681178455604051919092169283917f8be0079c531659141344cd1fd0a4f28419497f9722a3daafe3b4186f6b6457e09190a35050565b6020810151815110620004165760405162461bcd60e51b815260206004820152603260248201527f53746172742074696d657374616d70206d757374206265206c6573732074686160448201527106e2066696e6973682074696d657374616d760741b60648201526084015b60405180910390fd5b42816020015111620004845760405162461bcd60e51b815260206004820152603060248201527f46696e6973682074696d657374616d70206d757374206265206d6f726520746860448201526f616e2063757272656e7420626c6f636b60801b60648201526084016200040d565b8051600f55602081015160105560400151601155565b6004620004a8828262000b33565b5050565b6001830191839082156200053d5791602002820160005b838211156200050a57835183826101000a81548162ffffff021916908360020b62ffffff1602179055509260200192600301602081600201049283019260010302620004c3565b80156200053b5782816101000a81549062ffffff02191690556003016020816002010492830192600103026200050a565b505b506200054b9291506200054f565b5090565b5b808211156200054b576000815560010162000550565b6001600160a01b03811681146200057c57600080fd5b50565b634e487b7160e01b600052604160045260246000fd5b60405161012081016001600160401b0381118282101715620005bb57620005bb6200057f565b60405290565b60405161014081016001600160401b0381118282101715620005bb57620005bb6200057f565b604051601f8201601f191681016001600160401b03811182821017156200061257620006126200057f565b604052919050565b6000606082840312156200062d57600080fd5b604051606081016001600160401b03811182821017156200065257620006526200057f565b80604052508091508251815260208301516020820152604083015160408201525092915050565b8051620006868162000566565b919050565b8051600281900b81146200068657600080fd5b600082601f830112620006b057600080fd5b604080519081016001600160401b0381118282101715620006d557620006d56200057f565b8060405250806040840185811115620006ed57600080fd5b845b81811015620007125762000703816200068b565b835260209283019201620006ef565b509195945050505050565b805180151581146200068657600080fd5b600061014082840312156200074257600080fd5b6200074c62000595565b9050620007598262000679565b8152620007696020830162000679565b60208201526200077c6040830162000679565b60408201526200078f6060830162000679565b6060820152620007a2608083016200068b565b6080820152620007b560a083016200068b565b60a0820152620007c860c0830162000679565b60c0820152620007dc8360e084016200069e565b60e0820152620007f061012083016200071d565b61010082015292915050565b600082601f8301126200080e57600080fd5b81516001600160401b038111156200082a576200082a6200057f565b602062000840601f8301601f19168201620005e7565b82815285828487010111156200085557600080fd5b60005b838110156200087557858101830151828201840152820162000858565b506000928101909101919091529392505050565b600080600080600080600080888a03610380811215620008a857600080fd5b8951620008b58162000566565b9850610140601f198201811315620008cc57600080fd5b620008d6620005c1565b915060208b0151825260408b0151602083015260608b0151604083015260808b0151606083015260a08b0151608083015260c08b015160a083015260e08b015160c0830152610100808c015160e0840152610120808d015182850152828d01518185015250505080975050620009518a6101608b016200061a565b9550620009638a6101c08b016200072e565b9450620009746103008a0162000679565b6103208a01519094506001600160401b038111156200099257600080fd5b620009a08b828c01620007fc565b935050620009b26103408a016200071d565b9150620009c36103608a0162000679565b90509295985092959890939650565b600060208284031215620009e557600080fd5b815160ff81168114620009f757600080fd5b9392505050565b634e487b7160e01b600052601160045260246000fd5b808202811582820484141762000a2e5762000a2e620009fe565b92915050565b8181038181111562000a2e5762000a2e620009fe565b634e487b7160e01b600052601260045260246000fd5b60008262000a725762000a7262000a4a565b500690565b60008262000a895762000a8962000a4a565b500490565b8082018082111562000a2e5762000a2e620009fe565b600181811c9082168062000ab957607f821691505b60208210810362000ada57634e487b7160e01b600052602260045260246000fd5b50919050565b601f82111562000b2e57600081815260208120601f850160051c8101602086101562000b095750805b601f850160051c820191505b8181101562000b2a5782815560010162000b15565b5050505b505050565b81516001600160401b0381111562000b4f5762000b4f6200057f565b62000b678162000b60845462000aa4565b8462000ae0565b602080601f83116001811462000b9f576000841562000b865750858301515b600019600386901b1c1916600185901b17855562000b2a565b600085815260208120601f198616915b8281101562000bd05788860151825594840194600190910190840162000baf565b508582101562000bef5787850151600019600388901b60f8161c191681555b5050505050600190811b01905550565b6136978062000c0f6000396000f3fe6080604052600436106102465760003560e01c806362bea93f11610139578063c884ef83116100b6578063e086e5ec1161007a578063e086e5ec14610750578063f2fde38b14610758578063f7c618c114610778578063f84b903e14610798578063f851a440146107b9578063fd46a171146107d957600080fd5b8063c884ef8314610614578063ca71973814610641578063cd9c293f14610662578063d8d2a56d14610682578063ddeae0331461073057600080fd5b80638bdadaa1116100fd5780638bdadaa11461059f5780638da5cb5b146105b5578063b13aaebd146105d3578063b8b65ef3146105e9578063c6a0e27d146105ff57600080fd5b806362bea93f1461052a578063710075091461053f578063715018a614610554578063747daec5146105695780637dc2cd981461058957600080fd5b80632dcc8c66116101c75780634e71d92d1161018b5780634e71d92d146104c0578063586360ce146104d5578063590e1ae3146104eb5780635924079c146105005780635fd8c7101461051557600080fd5b80632dcc8c6614610433578063313ce567146104555780633f138d4b1461046b578063491447a81461048b5780634b1a4c0c146104aa57600080fd5b80631b9265b81161020e5780631b9265b81461037a57806324bf5d4114610384578063295a5212146103b55780632a123b16146103cf5780632b49657f1461040757600080fd5b8063086146d21461024b5780630df5dd191461027357806312065fe01461028957806312d3675e1461029e5780631959a00214610323575b600080fd5b34801561025757600080fd5b506102606107ef565b6040519081526020015b60405180910390f35b34801561027f57600080fd5b5061026060215481565b34801561029557600080fd5b506102606108a2565b3480156102aa57600080fd5b50600554600654600754600854600954600a54600b54600c54600d54600e546102d9999897969594939291908a565b604080519a8b5260208b0199909952978901969096526060880194909452608087019290925260a086015260c085015260e08401526101008301526101208201526101400161026a565b34801561032f57600080fd5b5061035f61033e366004612e64565b601e6020526000908152604090208054600182015460029092015490919083565b6040805193845260208401929092529082015260600161026a565b6103826108b1565b005b34801561039057600080fd5b50601d546103a590600160a81b900460ff1681565b604051901515815260200161026a565b3480156103c157600080fd5b506024546103a59060ff1681565b3480156103db57600080fd5b506019546103ef906001600160a01b031681565b6040516001600160a01b03909116815260200161026a565b34801561041357600080fd5b50610260610422366004612e64565b602080526000908152604090205481565b34801561043f57600080fd5b50610448610b1b565b60405161026a9190612ed1565b34801561046157600080fd5b5061026060035481565b34801561047757600080fd5b50610382610486366004612ee4565b610ba9565b34801561049757600080fd5b50600f5460105460115461035f92919083565b3480156104b657600080fd5b50610260601b5481565b3480156104cc57600080fd5b50610382610be4565b3480156104e157600080fd5b50610260601c5481565b3480156104f757600080fd5b50610382610ca0565b34801561050c57600080fd5b506103a5610e76565b34801561052157600080fd5b50610382610ee0565b34801561053657600080fd5b50610260610f6b565b34801561054b57600080fd5b50610382611005565b34801561056057600080fd5b50610382611163565b34801561057557600080fd5b50610382610584366004612f7f565b611177565b34801561059557600080fd5b5061026060265481565b3480156105ab57600080fd5b5061026060235481565b3480156105c157600080fd5b506000546001600160a01b03166103ef565b3480156105df57600080fd5b5061026060255481565b3480156105f557600080fd5b5061026060225481565b34801561060b57600080fd5b50610382611183565b34801561062057600080fd5b5061026061062f366004612e64565b601f6020526000908152604090205481565b34801561064d57600080fd5b506027546103a590600160a01b900460ff1681565b34801561066e57600080fd5b50601d546103ef906001600160a01b031681565b34801561068e57600080fd5b506012546013546014546015546016546018546106db956001600160a01b039081169581169481169380821693600160a01b8204600290810b94600160b81b909304900b92169060ff1688565b604080516001600160a01b03998a1681529789166020890152958816958701959095529286166060860152600291820b6080860152900b60a084015290921660c082015290151560e08201526101000161026a565b34801561073c57600080fd5b5061038261074b366004612e64565b611258565b610382611311565b34801561076457600080fd5b50610382610773366004612e64565b611d9a565b34801561078457600080fd5b506002546103ef906001600160a01b031681565b3480156107a457600080fd5b50601d546103a590600160a01b900460ff1681565b3480156107c557600080fd5b506027546103ef906001600160a01b031681565b3480156107e557600080fd5b50610260601a5481565b600080805b602654811015610874578060255461080c9190613015565b601054610819919061302c565b421015801561084b575061082e81600161302c565b60255461083b9190613015565b601054610848919061302c565b42105b156108625761085b81600161302c565b9150610874565b8061086c8161303f565b9150506107f4565b506026546025546108859190613015565b601054610892919061302c565b421061089d57506026545b919050565b60006108ac611e10565b504790565b600f544210156108f65760405162461bcd60e51b815260206004820152600b60248201526a139bdd081cdd185c9d195960aa1b60448201526064015b60405180910390fd5b601054421061092f5760405162461bcd60e51b8152602060048201526005602482015264115b99195960da1b60448201526064016108ed565b6008543410156109785760405162461bcd60e51b815260206004820152601460248201527313195cdcc81d1a195b881b5a5b88185b5bdd5b9d60621b60448201526064016108ed565b6009543411156109c15760405162461bcd60e51b8152602060048201526014602482015273135bdc99481d1a195b881b585e08185b5bdd5b9d60621b60448201526064016108ed565b600754601a546109d19034611e6a565b1115610a0c5760405162461bcd60e51b815260206004820152600a60248201526913dd995c999a5b1b195960b21b60448201526064016108ed565b336000908152601e602052604090206009546002820154610a2d9034611e6a565b1115610a725760405162461bcd60e51b8152602060048201526014602482015273135bdc99481d1a195b881b585e08185b5bdd5b9d60621b60448201526064016108ed565b6000610a8334600560000154611e7f565b601a54909150610a939034611e6a565b601a55601b54610aa39082611e6a565b601b556002820154610ab59034611e6a565b60028301556001820154610ac99082611e6a565b60018301558154610ada9082611e6a565b8255604080513481526020810183905233917fb55d4ca2fc644ca3f8cdc9c907826e24acd68d2b2d4d73f48b8f2378dbaedf5d910160405180910390a25050565b60048054610b2890613058565b80601f0160208091040260200160405190810160405280929190818152602001828054610b5490613058565b8015610ba15780601f10610b7657610100808354040283529160200191610ba1565b820191906000526020600020905b815481529060010190602001808311610b8457829003601f168201915b505050505081565b610bb1611e10565b6002546001600160a01b0390811690831603610bcc57600080fd5b610be06001600160a01b0383163383611ea4565b5050565b6000610bee6107ef565b905060008111610c365760405162461bcd60e51b8152602060048201526013602482015272131a5cdd1a5b99c81b9bdd081cdd185c9d1959606a1b60448201526064016108ed565b336000908152601f60205260409020548111610c945760405162461bcd60e51b815260206004820152601b60248201527f416c726561647920636c61696d6564206f7220726566756e646564000000000060448201526064016108ed565b610c9d33611efa565b50565b6010544211610cc15760405162461bcd60e51b81526004016108ed90613092565b600654601a5410610d145760405162461bcd60e51b815260206004820181905260248201527f5468652049444f20706f6f6c2068617320726561636820736f6674206361702e60448201526064016108ed565b336000908152601f602052604090205415610d635760405162461bcd60e51b815260206004820152600f60248201526e105b1c9958591e4818db185a5b5959608a1b60448201526064016108ed565b336000908152601e60205260409020600281015480610dc45760405162461bcd60e51b815260206004820152601760248201527f596f752068617665206e6f20696e766573746d656e742e00000000000000000060448201526064016108ed565b602654336000818152601f6020526040808220939093558085556002850181905560018501819055915183908381818185875af1925050503d8060008114610e28576040519150601f19603f3d011682016040523d82523d6000602084013e610e2d565b606091505b5050905080610e715760405162461bcd60e51b815260206004820152601060248201526f2a3930b739b332b9103330b4b632b21760811b60448201526064016108ed565b505050565b6027546000906001600160a01b03163314610ec05760405162461bcd60e51b815260206004820152600a60248201526927b7363c9030b236b4b760b11b60448201526064016108ed565b50601d805460ff60a81b1916600160a81b90811791829055900460ff1690565b604051600090339047908381818185875af1925050503d8060008114610f22576040519150601f19603f3d011682016040523d82523d6000602084013e610f27565b606091505b5050905080610c9d5760405162461bcd60e51b815260206004820152601060248201526f5472616e73666572206661696c65642160801b60448201526064016108ed565b6002546040516370a0823160e01b815230600482015260009182916001600160a01b03909116906370a0823190602401602060405180830381865afa158015610fb8573d6000803e3d6000fd5b505050506040513d601f19601f82011682018060405250810190610fdc91906130c9565b9050610fff601b54610ff9601c5484611e6a90919063ffffffff16565b90612308565b91505090565b61100d611e10565b601054421161102e5760405162461bcd60e51b81526004016108ed90613092565b600654601a54106110815760405162461bcd60e51b815260206004820181905260248201527f5468652049444f20706f6f6c2068617320726561636820736f6674206361702e60448201526064016108ed565b6002546040516370a0823160e01b81523060048201526000916001600160a01b0316906370a0823190602401602060405180830381865afa1580156110ca573d6000803e3d6000fd5b505050506040513d601f19601f820116820180604052508101906110ee91906130c9565b90506000811161114c5760405162461bcd60e51b815260206004820152602360248201527f5468652049444f20706f6f6c20686173206e6f7420726566756e6420746f6b6560448201526237399760e91b60648201526084016108ed565b600254610c9d906001600160a01b03163383611ea4565b61116b611e10565b6111756000612314565b565b6004610be08282613130565b61118b611e10565b601d54600160a01b900460ff166111f05760405162461bcd60e51b815260206004820152602360248201527f576974686472617720616c6c6f7765642061667465722064697374726962757460448201526232b21760e91b60648201526084016108ed565b60006111fa610f6b565b90506000811161114c5760405162461bcd60e51b815260206004820152602360248201527f5468652049444f20706f6f6c20686173206e6f7420756e736f6c6420746f6b6560448201526237399760e91b60648201526084016108ed565b60006112626107ef565b9050600081116112aa5760405162461bcd60e51b8152602060048201526013602482015272131a5cdd1a5b99c81b9bdd081cdd185c9d1959606a1b60448201526064016108ed565b336000908152601f602052604090205481116113085760405162461bcd60e51b815260206004820152601b60248201527f416c726561647920636c61696d6564206f7220726566756e646564000000000060448201526064016108ed565b610be082611efa565b611319611e10565b600654601a54101561133d5760405162461bcd60e51b81526004016108ed906131f0565b601d54600160a01b900460ff161561138e5760405162461bcd60e51b815260206004820152601460248201527320b63932b0b23c903234b9ba3934b13aba32b21760611b60448201526064016108ed565b60275447906000908190600160a01b900460ff16151581036113cd576113c26127106113bc856101f4612364565b90612370565b91506000905061141d565b6113de6127106113bc8560c8612364565b915061141a6127106113bc60c8611414612710600560060154896114029190613015565b61140c919061324a565b600a54611e7f565b90612364565b90505b600b541580159061142f5750600a5415155b15611c2157600b54600090612710906114489086613015565b611452919061324a565b90506000611460828661326c565b905061146c848261326c565b9050600061147e836005800154611e7f565b60245490915060ff16151560000361179b5760025460125460405163095ea7b360e01b81526001600160a01b039283169263095ea7b3926114c692911690859060040161327f565b6020604051808303816000875af11580156114e5573d6000803e3d6000fd5b505050506040513d601f19601f820116820180604052508101906115099190613298565b5060155460025460009182916001600160a01b0391821691161015611532575081905083611538565b50839050815b601454600254601554604051630b4c774160e11b81526001600160a01b039283166004820152908216602482015261012c60448201526000929190911690631698ee8290606401602060405180830381865afa15801561159c573d6000803e3d6000fd5b505050506040513d601f19601f820116820180604052508101906115c091906132ba565b601154909150819042101561176f57601954601d54604080516395d89b4160e01b815290516000936001600160a01b0390811693633028d15693879391909216916395d89b4191600480830192899291908290030181865afa15801561162a573d6000803e3d6000fd5b505050506040513d6000823e601f3d908101601f1916820160405261165291908101906132d7565b6040516020016116629190613345565b60408051601f19818403018152908290526011546001600160e01b031960e086901b16835261169b939260009133918390600401613377565b6020604051808303816000875af11580156116ba573d6000803e3d6000fd5b505050506040513d601f19601f820116820180604052508101906116de91906132ba565b90506000806116ee87878561237c565b6040516331f20b4760e21b8152949650945086936001600160a01b038516935063c7c82d1c925061172691503390879060040161327f565b600060405180830381600087803b15801561174057600080fd5b505af1158015611754573d6000803e3d6000fd5b50505050818a611764919061326c565b995050505050611792565b600061177c85853361237c565b945050505050808761178e919061326c565b9650505b50505050611b80565b60135460025460405163095ea7b360e01b81526001600160a01b03928316929091169063095ea7b3906117d4908490869060040161327f565b6020604051808303816000875af11580156117f3573d6000803e3d6000fd5b505050506040513d601f19601f820116820180604052508101906118179190613298565b506002546000906001600160a01b038084169163f305d71991889116868580306118434261016861302c565b60405160e089901b6001600160e01b03191681526001600160a01b039687166004820152602481019590955260448501939093526064840191909152909216608482015260a481019190915260c40160606040518083038185885af11580156118b0573d6000803e3d6000fd5b50505050506040513d601f19601f820116820180604052508101906118d591906133c1565b60145460025460155460405163e6a4390560e01b81526001600160a01b03928316600482015290821660248201529295506000945016915063e6a4390590604401602060405180830381865afa158015611933573d6000803e3d6000fd5b505050506040513d601f19601f8201168201806040525081019061195791906132ba565b6011549091508190421015611afc5760195460405163095ea7b360e01b81526001600160a01b038381169263095ea7b39261199a9290911690879060040161327f565b6020604051808303816000875af11580156119b9573d6000803e3d6000fd5b505050506040513d601f19601f820116820180604052508101906119dd9190613298565b50601960009054906101000a90046001600160a01b03166001600160a01b0316633028d1563483846001600160a01b03166395d89b416040518163ffffffff1660e01b8152600401600060405180830381865afa158015611a42573d6000803e3d6000fd5b505050506040513d6000823e601f3d908101601f19168201604052611a6a91908101906132d7565b604051602001611a7a9190613345565b60408051601f19818403018152908290526011546001600160e01b031960e087901b168352611ab393928a913391600190600401613377565b60206040518083038185885af1158015611ad1573d6000803e3d6000fd5b50505050506040513d601f19601f82011682018060405250810190611af691906132ba565b50611b7b565b60405163a9059cbb60e01b81526001600160a01b0382169063a9059cbb90611b2a903390879060040161327f565b6020604051808303816000875af1158015611b49573d6000803e3d6000fd5b505050506040513d601f19601f82011682018060405250810190611b6d9190613298565b50611b78348761302c565b95505b505050505b604051600090339084908381818185875af1925050503d8060008114611bc2576040519150601f19603f3d011682016040523d82523d6000602084013e611bc7565b606091505b5050905080611c185760405162461bcd60e51b815260206004820152601c60248201527f5472616e73666572206574685769746864726177206661696c65642e0000000060448201526064016108ed565b50505050611cc2565b600033611c2e848661326c565b604051600081818185875af1925050503d8060008114611c6a576040519150601f19603f3d011682016040523d82523d6000602084013e611c6f565b606091505b5050905080611cc05760405162461bcd60e51b815260206004820152601860248201527f5472616e736665722062616c616e6365206661696c65642e000000000000000060448201526064016108ed565b505b6027546040516000916001600160a01b03169084908381818185875af1925050503d8060008114611d0f576040519150601f19603f3d011682016040523d82523d6000602084013e611d14565b606091505b5050905080611d5e5760405162461bcd60e51b81526020600482015260166024820152752a3930b739b332b9103332b2a7a8103330b4b632b21760511b60448201526064016108ed565b8115611d8157602754600254611d81916001600160a01b03918216911684611ea4565b5050601d805460ff60a01b1916600160a01b1790555050565b611da2611e10565b6001600160a01b038116611e075760405162461bcd60e51b815260206004820152602660248201527f4f776e61626c653a206e6577206f776e657220697320746865207a65726f206160448201526564647265737360d01b60648201526084016108ed565b610c9d81612314565b6000546001600160a01b031633146111755760405162461bcd60e51b815260206004820181905260248201527f4f776e61626c653a2063616c6c6572206973206e6f7420746865206f776e657260448201526064016108ed565b6000611e76828461302c565b90505b92915050565b6000600354600a611e9091906134d3565b611e9a838561324a565b611e769190613015565b610e718363a9059cbb60e01b8484604051602401611ec392919061327f565b60408051601f198184030181529190526020810180516001600160e01b03166001600160e01b0319909316929092179091526129f2565b611f02612ac7565b6010544211611f235760405162461bcd60e51b81526004016108ed90613092565b600654601a541015611f475760405162461bcd60e51b81526004016108ed906131f0565b6001600160a01b0381166000908152601e6020526040812090611f686107ef565b8254909150611fb95760405162461bcd60e51b815260206004820152601c60248201527f596f7520646f206e6f742068617665206465627420746f6b656e732e0000000060448201526064016108ed565b602654810361210e57336000908152601f602052604081205481036120205782546120185760405162461bcd60e51b815260206004820152600f60248201526e155cd95c881b9bdd081a5b9d995cdd608a1b60448201526064016108ed565b508154612084565b3360009081526020805260409020546120735760405162461bcd60e51b815260206004820152601560248201527408155cd95c881a185cc818db185a5b595908105b1b605a1b60448201526064016108ed565b503360009081526020805260409020545b60025461209b906001600160a01b03163383611ea4565b33600090815260208080526040808320839055602654601f90925290912055601c546120c79082611e6a565b601c556040518181526001600160a01b038516907f6352c5382c4a4578e712449ca65e83cdb392d045dfcf1cad9615189db2da244b9060200160405180910390a2506122ed565b336000908152601f602052604081205482116121845760405162461bcd60e51b815260206004820152602f60248201527f436c61696d656420746f6f206d616e792074696d657320636f6d70617265642060448201526e1d1bc81d1a19481cdd185b99185c99608a1b60648201526084016108ed565b336000908152601f60205260409020545b8281101561228557806000036121ef57600e5484546000916121bf91612710916113bc9190612364565b90506121cb818461302c565b85549093506121da9082612308565b3360009081526020805260409020555061224d565b60006122136127106113bc600560080154886001015461236490919063ffffffff16565b905061221f818461302c565b33600090815260208052604090205490935061223c90829061326c565b336000908152602080526040902055505b336000908152601f6020526040812080546001929061226d90849061302c565b9091555081905061227d8161303f565b915050612195565b5060025461229d906001600160a01b03163383611ea4565b601c546122aa9082611e6a565b601c556040518181526001600160a01b038516907f6352c5382c4a4578e712449ca65e83cdb392d045dfcf1cad9615189db2da244b9060200160405180910390a2505b503360009081526020805260409020549055610c9d60018055565b6000611e76828461326c565b600080546001600160a01b038381166001600160a01b0319831681178455604051919092169283917f8be0079c531659141344cd1fd0a4f28419497f9722a3daafe3b4186f6b6457e09190a35050565b6000611e768284613015565b6000611e76828461324a565b60155460125460405163095ea7b360e01b815260009283928392839283926001600160a01b039182169263095ea7b3926123be9216906000199060040161327f565b6020604051808303816000875af11580156123dd573d6000803e3d6000fd5b505050506040513d601f19601f820116820180604052508101906124019190613298565b61243e5760405162461bcd60e51b815260206004820152600e60248201526d185c1c1c9bdd994819985a5b195960921b60448201526064016108ed565b60025460125460405163095ea7b360e01b81526001600160a01b039283169263095ea7b392612476929116906000199060040161327f565b6020604051808303816000875af1158015612495573d6000803e3d6000fd5b505050506040513d601f19601f820116820180604052508101906124b99190613298565b61252b5760405162461bcd60e51b815260206004820152603860248201527f417070726f766520726577617264546f6b656e20746f206e6f6e66756e67696260448201527f6c65506f736974696f6e4d616e61676572206661696c6564000000000000000060648201526084016108ed565b60155460405163095ea7b360e01b81526001600160a01b039091169063095ea7b39061255f9030906000199060040161327f565b6020604051808303816000875af115801561257e573d6000803e3d6000fd5b505050506040513d601f19601f820116820180604052508101906125a29190613298565b6125df5760405162461bcd60e51b815260206004820152600e60248201526d185c1c1c9bdd994819985a5b195960921b60448201526064016108ed565b60025460405163095ea7b360e01b81526001600160a01b039091169063095ea7b3906126139030906000199060040161327f565b6020604051808303816000875af1158015612632573d6000803e3d6000fd5b505050506040513d601f19601f820116820180604052508101906126569190613298565b6126b65760405162461bcd60e51b815260206004820152602b60248201527f417070726f766520726577617264546f6b656e20746f207468697320636f6e7460448201526a1c9858dd0819985a5b195960aa1b60648201526084016108ed565b6002546015546016546001600160a01b03928316929182169160009182916126de9116612b20565b6015546002549294509092506001600160a01b0390811691161015612775576000612709828d61302c565b60155460408051630d0e30db60e41b815290519293506001600160a01b039091169163d0e30db0918491600480830192600092919082900301818588803b15801561275357600080fd5b505af1158015612767573d6000803e3d6000fd5b50505050508195505061280a565b6015546002546001600160a01b0391821695501692506000612797838e61302c565b9050829550601260030160009054906101000a90046001600160a01b03166001600160a01b031663d0e30db0826040518263ffffffff1660e01b81526004016000604051808303818588803b1580156127ef57600080fd5b505af1158015612803573d6000803e3d6000fd5b5050505050505b601d54601654604051630e24ac2560e11b81526001600160a01b038781166004830152868116602483015261012c60448301529182166064820152911690631c49584a906084016020604051808303816000875af1158015612870573d6000803e3d6000fd5b505050506040513d601f19601f8201168201806040525081019061289491906132ba565b5060408051610180810182526001600160a01b0386811682528516602082015261012c81830152601554600160a01b8104600290810b6060840152600160b81b909104810b608083015282518084019384905260009360a08401926017918287855b825461010083900a900460020b81526020600583018190049384019360010360039093019290920291018084116128f657505050928452505050602081018f905260408082018f905260006060830181905260808301526001600160a01b038e811660a08401524260c090930192909252601d54905163752a031960e11b8152929350169063ea5406329061298f908490600401613510565b6080604051808303816000875af11580156129ae573d6000803e3d6000fd5b505050506040513d601f19601f820116820180604052508101906129d291906135f2565b809a50819b50829c50839d50505050505050505050939792965093509350565b6000612a47826040518060400160405280602081526020017f5361666545524332303a206c6f772d6c6576656c2063616c6c206661696c6564815250856001600160a01b0316612b629092919063ffffffff16565b9050805160001480612a68575080806020019051810190612a689190613298565b610e715760405162461bcd60e51b815260206004820152602a60248201527f5361666545524332303a204552433230206f7065726174696f6e20646964206e6044820152691bdd081cdd58d8d9595960b21b60648201526084016108ed565b600260015403612b195760405162461bcd60e51b815260206004820152601f60248201527f5265656e7472616e637947756172643a207265656e7472616e742063616c6c0060448201526064016108ed565b6002600155565b600080612b3e620186a0600160601b6001600160a01b038616612b7b565b9150612b5b620186a06001600160a01b038516600160601b612b7b565b9050915091565b6060612b718484600085612bb6565b90505b9392505050565b6000612b88848484612c93565b905060008280612b9a57612b9a613234565b8486091115612b745780612bad8161303f565b95945050505050565b606082471015612c175760405162461bcd60e51b815260206004820152602660248201527f416464726573733a20696e73756666696369656e742062616c616e636520666f6044820152651c8818d85b1b60d21b60648201526084016108ed565b600080866001600160a01b03168587604051612c339190613645565b60006040518083038185875af1925050503d8060008114612c70576040519150601f19603f3d011682016040523d82523d6000602084013e612c75565b606091505b5091509150612c8687838387612db1565b925050505b949350505050565b6000808060001985870985870292508281108382030391505080600003612cf95760008411612cee5760405162461bcd60e51b8152602060048201526007602482015266302064656e6f6d60c81b60448201526064016108ed565b508290049050612b74565b808411612d395760405162461bcd60e51b815260206004820152600e60248201526d64656e6f6d203c3d2070726f643160901b60448201526064016108ed565b6000848688098084039381119092039190506000612d598619600161302c565b8616958690049560026003880281188089028203028089028203028089028203028089028203028089028203028089029091030260008290038290046001019490940294049390931791909102925050509392505050565b60608315612e20578251600003612e19576001600160a01b0385163b612e195760405162461bcd60e51b815260206004820152601d60248201527f416464726573733a2063616c6c20746f206e6f6e2d636f6e747261637400000060448201526064016108ed565b5081612c8b565b612c8b8383815115612e355781518083602001fd5b8060405162461bcd60e51b81526004016108ed9190612ed1565b6001600160a01b0381168114610c9d57600080fd5b600060208284031215612e7657600080fd5b8135612b7481612e4f565b60005b83811015612e9c578181015183820152602001612e84565b50506000910152565b60008151808452612ebd816020860160208601612e81565b601f01601f19169290920160200192915050565b602081526000611e766020830184612ea5565b60008060408385031215612ef757600080fd5b8235612f0281612e4f565b946020939093013593505050565b634e487b7160e01b600052604160045260246000fd5b604051601f8201601f1916810167ffffffffffffffff81118282101715612f4f57612f4f612f10565b604052919050565b600067ffffffffffffffff821115612f7157612f71612f10565b50601f01601f191660200190565b600060208284031215612f9157600080fd5b813567ffffffffffffffff811115612fa857600080fd5b8201601f81018413612fb957600080fd5b8035612fcc612fc782612f57565b612f26565b818152856020838501011115612fe157600080fd5b81602084016020830137600091810160200191909152949350505050565b634e487b7160e01b600052601160045260246000fd5b8082028115828204841417611e7957611e79612fff565b80820180821115611e7957611e79612fff565b60006001820161305157613051612fff565b5060010190565b600181811c9082168061306c57607f821691505b60208210810361308c57634e487b7160e01b600052602260045260246000fd5b50919050565b6020808252601b908201527f5468652049444f20706f6f6c20686173206e6f7420656e6465642e0000000000604082015260600190565b6000602082840312156130db57600080fd5b5051919050565b601f821115610e7157600081815260208120601f850160051c810160208610156131095750805b601f850160051c820191505b8181101561312857828155600101613115565b505050505050565b815167ffffffffffffffff81111561314a5761314a612f10565b61315e816131588454613058565b846130e2565b602080601f831160018114613193576000841561317b5750858301515b600019600386901b1c1916600185901b178555613128565b600085815260208120601f198616915b828110156131c2578886015182559484019460019091019084016131a3565b50858210156131e05787850151600019600388901b60f8161c191681555b5050505050600190811b01905550565b60208082526024908201527f5468652049444f20706f6f6c20646964206e6f7420726561636820736f66742060408201526331b0b81760e11b606082015260800190565b634e487b7160e01b600052601260045260246000fd5b60008261326757634e487b7160e01b600052601260045260246000fd5b500490565b81810381811115611e7957611e79612fff565b6001600160a01b03929092168252602082015260400190565b6000602082840312156132aa57600080fd5b81518015158114612b7457600080fd5b6000602082840312156132cc57600080fd5b8151612b7481612e4f565b6000602082840312156132e957600080fd5b815167ffffffffffffffff81111561330057600080fd5b8201601f8101841361331157600080fd5b805161331f612fc782612f57565b81815285602083850101111561333457600080fd5b612bad826020830160208601612e81565b60008251613357818460208701612e81565b6d103a37b5b2b739903637b1b5b2b960911b920191825250600e01919050565b600060018060a01b03808916835260c0602084015261339960c0840189612ea5565b60408401979097529490941660608201526080810192909252151560a0909101525092915050565b6000806000606084860312156133d657600080fd5b8351925060208401519150604084015190509250925092565b600181815b8085111561342a57816000190482111561341057613410612fff565b8085161561341d57918102915b93841c93908002906133f4565b509250929050565b60008261344157506001611e79565b8161344e57506000611e79565b8160018114613464576002811461346e5761348a565b6001915050611e79565b60ff84111561347f5761347f612fff565b50506001821b611e79565b5060208310610133831016604e8410600b84101617156134ad575081810a611e79565b6134b783836133ef565b80600019048211156134cb576134cb612fff565b029392505050565b6000611e768383613432565b8060005b60028082106134f2575061350a565b8251900b8452602093840193909101906001016134e3565b50505050565b81516001600160a01b031681526101a08101602083015161353c60208401826001600160a01b03169052565b506040830151613553604084018262ffffff169052565b506060830151613568606084018260020b9052565b50608083015161357d608084018260020b9052565b5060a083015161359060a08401826134df565b5060c083015160e0838101919091528301516101008084019190915283015161012080840191909152830151610140808401919091528301516101606135e0818501836001600160a01b03169052565b80850151610180850152505092915050565b6000806000806080858703121561360857600080fd5b8451935060208501516fffffffffffffffffffffffffffffffff8116811461362f57600080fd5b6040860151606090960151949790965092505050565b60008251613657818460208701612e81565b919091019291505056fea2646970667358221220ff9cf012975a4de5214faa6891cab7a8f29aff747b87d0ecb5ef517c12e9646a64736f6c63430008130033a26469706673582212205cc0f291054bc8b485c774cb9c0d38c73b8a5fb02d917c17baeb75820c97a01c64736f6c63430008130033",
  "linkReferences": {},
  "deployedLinkReferences": {}
}