{
    "_format": "hh-sol-artifact-1",
    "contractName": "IDOPool",
    "sourceName": "contracts/IDOPool.sol",
    "abi": [
        {
            "inputs": [
                {
                    "internalType": "contract ERC20",
                    "name": "_rewardToken",
                    "type": "address"
                },
                {
                    "components": [
                        {
                            "internalType": "uint256",
                            "name": "tokenPrice",
                            "type": "uint256"
                        },
                        {
                            "internalType": "uint256",
                            "name": "softCap",
                            "type": "uint256"
                        },
                        {
                            "internalType": "uint256",
                            "name": "hardCap",
                            "type": "uint256"
                        },
                        {
                            "internalType": "uint256",
                            "name": "minEthPayment",
                            "type": "uint256"
                        },
                        {
                            "internalType": "uint256",
                            "name": "maxEthPayment",
                            "type": "uint256"
                        },
                        {
                            "internalType": "uint256",
                            "name": "listingPrice",
                            "type": "uint256"
                        },
                        {
                            "internalType": "uint256",
                            "name": "lpInterestRate",
                            "type": "uint256"
                        },
                        {
                            "internalType": "uint256",
                            "name": "claimCycle",
                            "type": "uint256"
                        },
                        {
                            "internalType": "uint256",
                            "name": "percentClaimfromSecondTime",
                            "type": "uint256"
                        },
                        {
                            "internalType": "uint256",
                            "name": "percentClaimFisrtTime",
                            "type": "uint256"
                        }
                    ],
                    "internalType": "struct IDOPool.FinInfo",
                    "name": "_finInfo",
                    "type": "tuple"
                },
                {
                    "components": [
                        {
                            "internalType": "uint256",
                            "name": "startTimestamp",
                            "type": "uint256"
                        },
                        {
                            "internalType": "uint256",
                            "name": "endTimestamp",
                            "type": "uint256"
                        },
                        {
                            "internalType": "uint256",
                            "name": "unlockTimestamp",
                            "type": "uint256"
                        }
                    ],
                    "internalType": "struct IDOPool.Timestamps",
                    "name": "_timestamps",
                    "type": "tuple"
                },
                {
                    "components": [
                        {
                            "internalType": "address",
                            "name": "nonfungiblePositionManager",
                            "type": "address"
                        },
                        {
                            "internalType": "address",
                            "name": "router",
                            "type": "address"
                        },
                        {
                            "internalType": "address",
                            "name": "factory",
                            "type": "address"
                        },
                        {
                            "internalType": "address",
                            "name": "weth",
                            "type": "address"
                        },
                        {
                            "internalType": "int24",
                            "name": "tickLower",
                            "type": "int24"
                        },
                        {
                            "internalType": "int24",
                            "name": "tickUpper",
                            "type": "int24"
                        },
                        {
                            "internalType": "uint160",
                            "name": "currentSqrtP",
                            "type": "uint160"
                        },
                        {
                            "internalType": "int24[2]",
                            "name": "ticksPrevious",
                            "type": "int24[2]"
                        },
                        {
                            "internalType": "bool",
                            "name": "fee",
                            "type": "bool"
                        }
                    ],
                    "internalType": "struct IDOPool.DEXInfo",
                    "name": "_dexInfo",
                    "type": "tuple"
                },
                {
                    "internalType": "address",
                    "name": "_lockerFactoryAddress",
                    "type": "address"
                },
                {
                    "internalType": "string",
                    "name": "_metadataURL",
                    "type": "string"
                },
                {
                    "internalType": "bool",
                    "name": "_mode",
                    "type": "bool"
                },
                {
                    "internalType": "address",
                    "name": "_admin",
                    "type": "address"
                }
            ],
            "stateMutability": "nonpayable",
            "type": "constructor"
        },
        {
            "anonymous": false,
            "inputs": [
                {
                    "indexed": true,
                    "internalType": "address",
                    "name": "previousOwner",
                    "type": "address"
                },
                {
                    "indexed": true,
                    "internalType": "address",
                    "name": "newOwner",
                    "type": "address"
                }
            ],
            "name": "OwnershipTransferred",
            "type": "event"
        },
        {
            "anonymous": false,
            "inputs": [
                {
                    "indexed": true,
                    "internalType": "address",
                    "name": "holder",
                    "type": "address"
                },
                {
                    "indexed": false,
                    "internalType": "uint256",
                    "name": "ethAmount",
                    "type": "uint256"
                },
                {
                    "indexed": false,
                    "internalType": "uint256",
                    "name": "tokenAmount",
                    "type": "uint256"
                }
            ],
            "name": "TokensDebt",
            "type": "event"
        },
        {
            "anonymous": false,
            "inputs": [
                {
                    "indexed": true,
                    "internalType": "address",
                    "name": "holder",
                    "type": "address"
                },
                {
                    "indexed": false,
                    "internalType": "uint256",
                    "name": "amount",
                    "type": "uint256"
                }
            ],
            "name": "TokensWithdrawn",
            "type": "event"
        },
        {
            "inputs": [],
            "name": "admin",
            "outputs": [
                {
                    "internalType": "address",
                    "name": "",
                    "type": "address"
                }
            ],
            "stateMutability": "view",
            "type": "function"
        },
        {
            "inputs": [],
            "name": "basePositionManager",
            "outputs": [
                {
                    "internalType": "contract IBasePositionManager",
                    "name": "",
                    "type": "address"
                }
            ],
            "stateMutability": "view",
            "type": "function"
        },
        {
            "inputs": [],
            "name": "claim",
            "outputs": [],
            "stateMutability": "nonpayable",
            "type": "function"
        },
        {
            "inputs": [],
            "name": "claimCycle",
            "outputs": [
                {
                    "internalType": "uint256",
                    "name": "",
                    "type": "uint256"
                }
            ],
            "stateMutability": "view",
            "type": "function"
        },
        {
            "inputs": [
                {
                    "internalType": "address",
                    "name": "_user",
                    "type": "address"
                }
            ],
            "name": "claimFor",
            "outputs": [],
            "stateMutability": "nonpayable",
            "type": "function"
        },
        {
            "inputs": [],
            "name": "claimPeriod",
            "outputs": [
                {
                    "internalType": "uint256",
                    "name": "",
                    "type": "uint256"
                }
            ],
            "stateMutability": "view",
            "type": "function"
        },
        {
            "inputs": [
                {
                    "internalType": "address",
                    "name": "",
                    "type": "address"
                }
            ],
            "name": "claimed",
            "outputs": [
                {
                    "internalType": "uint256",
                    "name": "",
                    "type": "uint256"
                }
            ],
            "stateMutability": "view",
            "type": "function"
        },
        {
            "inputs": [],
            "name": "decimals",
            "outputs": [
                {
                    "internalType": "uint256",
                    "name": "",
                    "type": "uint256"
                }
            ],
            "stateMutability": "view",
            "type": "function"
        },
        {
            "inputs": [],
            "name": "dexInfo",
            "outputs": [
                {
                    "internalType": "address",
                    "name": "nonfungiblePositionManager",
                    "type": "address"
                },
                {
                    "internalType": "address",
                    "name": "router",
                    "type": "address"
                },
                {
                    "internalType": "address",
                    "name": "factory",
                    "type": "address"
                },
                {
                    "internalType": "address",
                    "name": "weth",
                    "type": "address"
                },
                {
                    "internalType": "int24",
                    "name": "tickLower",
                    "type": "int24"
                },
                {
                    "internalType": "int24",
                    "name": "tickUpper",
                    "type": "int24"
                },
                {
                    "internalType": "uint160",
                    "name": "currentSqrtP",
                    "type": "uint160"
                },
                {
                    "internalType": "bool",
                    "name": "fee",
                    "type": "bool"
                }
            ],
            "stateMutability": "view",
            "type": "function"
        },
        {
            "inputs": [],
            "name": "distributed",
            "outputs": [
                {
                    "internalType": "bool",
                    "name": "",
                    "type": "bool"
                }
            ],
            "stateMutability": "view",
            "type": "function"
        },
        {
            "inputs": [],
            "name": "distributedTokens",
            "outputs": [
                {
                    "internalType": "uint256",
                    "name": "",
                    "type": "uint256"
                }
            ],
            "stateMutability": "view",
            "type": "function"
        },
        {
            "inputs": [],
            "name": "ethForPoolP",
            "outputs": [
                {
                    "internalType": "uint256",
                    "name": "",
                    "type": "uint256"
                }
            ],
            "stateMutability": "view",
            "type": "function"
        },
        {
            "inputs": [],
            "name": "ethWithdrawP",
            "outputs": [
                {
                    "internalType": "uint256",
                    "name": "",
                    "type": "uint256"
                }
            ],
            "stateMutability": "view",
            "type": "function"
        },
        {
            "inputs": [],
            "name": "feeOpt",
            "outputs": [
                {
                    "internalType": "bool",
                    "name": "",
                    "type": "bool"
                }
            ],
            "stateMutability": "view",
            "type": "function"
        },
        {
            "inputs": [],
            "name": "finInfo",
            "outputs": [
                {
                    "internalType": "uint256",
                    "name": "tokenPrice",
                    "type": "uint256"
                },
                {
                    "internalType": "uint256",
                    "name": "softCap",
                    "type": "uint256"
                },
                {
                    "internalType": "uint256",
                    "name": "hardCap",
                    "type": "uint256"
                },
                {
                    "internalType": "uint256",
                    "name": "minEthPayment",
                    "type": "uint256"
                },
                {
                    "internalType": "uint256",
                    "name": "maxEthPayment",
                    "type": "uint256"
                },
                {
                    "internalType": "uint256",
                    "name": "listingPrice",
                    "type": "uint256"
                },
                {
                    "internalType": "uint256",
                    "name": "lpInterestRate",
                    "type": "uint256"
                },
                {
                    "internalType": "uint256",
                    "name": "claimCycle",
                    "type": "uint256"
                },
                {
                    "internalType": "uint256",
                    "name": "percentClaimfromSecondTime",
                    "type": "uint256"
                },
                {
                    "internalType": "uint256",
                    "name": "percentClaimFisrtTime",
                    "type": "uint256"
                }
            ],
            "stateMutability": "view",
            "type": "function"
        },
        {
            "inputs": [],
            "name": "getBalance",
            "outputs": [
                {
                    "internalType": "uint256",
                    "name": "",
                    "type": "uint256"
                }
            ],
            "stateMutability": "view",
            "type": "function"
        },
        {
            "inputs": [],
            "name": "getCurrentPeriod",
            "outputs": [
                {
                    "internalType": "uint256",
                    "name": "",
                    "type": "uint256"
                }
            ],
            "stateMutability": "view",
            "type": "function"
        },
        {
            "inputs": [],
            "name": "getNotSoldToken",
            "outputs": [
                {
                    "internalType": "uint256",
                    "name": "",
                    "type": "uint256"
                }
            ],
            "stateMutability": "view",
            "type": "function"
        },
        {
            "inputs": [
                {
                    "internalType": "address",
                    "name": "",
                    "type": "address"
                }
            ],
            "name": "investmentsCanClaims",
            "outputs": [
                {
                    "internalType": "uint256",
                    "name": "",
                    "type": "uint256"
                }
            ],
            "stateMutability": "view",
            "type": "function"
        },
        {
            "inputs": [],
            "name": "isVerify",
            "outputs": [
                {
                    "internalType": "bool",
                    "name": "",
                    "type": "bool"
                }
            ],
            "stateMutability": "view",
            "type": "function"
        },
        {
            "inputs": [],
            "name": "lockerFactory",
            "outputs": [
                {
                    "internalType": "contract TokenLockerFactory",
                    "name": "",
                    "type": "address"
                }
            ],
            "stateMutability": "view",
            "type": "function"
        },
        {
            "inputs": [],
            "name": "metadataURL",
            "outputs": [
                {
                    "internalType": "string",
                    "name": "",
                    "type": "string"
                }
            ],
            "stateMutability": "view",
            "type": "function"
        },
        {
            "inputs": [],
            "name": "mode",
            "outputs": [
                {
                    "internalType": "bool",
                    "name": "",
                    "type": "bool"
                }
            ],
            "stateMutability": "view",
            "type": "function"
        },
        {
            "inputs": [],
            "name": "owner",
            "outputs": [
                {
                    "internalType": "address",
                    "name": "",
                    "type": "address"
                }
            ],
            "stateMutability": "view",
            "type": "function"
        },
        {
            "inputs": [],
            "name": "pay",
            "outputs": [],
            "stateMutability": "payable",
            "type": "function"
        },
        {
            "inputs": [
                {
                    "internalType": "address",
                    "name": "_tokenAddress",
                    "type": "address"
                },
                {
                    "internalType": "uint256",
                    "name": "_tokenAmount",
                    "type": "uint256"
                }
            ],
            "name": "recoverWrongTokens",
            "outputs": [],
            "stateMutability": "nonpayable",
            "type": "function"
        },
        {
            "inputs": [],
            "name": "refund",
            "outputs": [],
            "stateMutability": "nonpayable",
            "type": "function"
        },
        {
            "inputs": [],
            "name": "refundTokens",
            "outputs": [],
            "stateMutability": "nonpayable",
            "type": "function"
        },
        {
            "inputs": [],
            "name": "renounceOwnership",
            "outputs": [],
            "stateMutability": "nonpayable",
            "type": "function"
        },
        {
            "inputs": [],
            "name": "rewardToken",
            "outputs": [
                {
                    "internalType": "contract ERC20",
                    "name": "",
                    "type": "address"
                }
            ],
            "stateMutability": "view",
            "type": "function"
        },
        {
            "inputs": [
                {
                    "internalType": "string",
                    "name": "_metadataURL",
                    "type": "string"
                }
            ],
            "name": "setMetadataURL",
            "outputs": [],
            "stateMutability": "nonpayable",
            "type": "function"
        },
        {
            "inputs": [],
            "name": "setPoolVerify",
            "outputs": [
                {
                    "internalType": "bool",
                    "name": "",
                    "type": "bool"
                }
            ],
            "stateMutability": "nonpayable",
            "type": "function"
        },
        {
            "inputs": [],
            "name": "timestamps",
            "outputs": [
                {
                    "internalType": "uint256",
                    "name": "startTimestamp",
                    "type": "uint256"
                },
                {
                    "internalType": "uint256",
                    "name": "endTimestamp",
                    "type": "uint256"
                },
                {
                    "internalType": "uint256",
                    "name": "unlockTimestamp",
                    "type": "uint256"
                }
            ],
            "stateMutability": "view",
            "type": "function"
        },
        {
            "inputs": [],
            "name": "tokenIdP",
            "outputs": [
                {
                    "internalType": "uint256",
                    "name": "",
                    "type": "uint256"
                }
            ],
            "stateMutability": "view",
            "type": "function"
        },
        {
            "inputs": [],
            "name": "tokensForDistribution",
            "outputs": [
                {
                    "internalType": "uint256",
                    "name": "",
                    "type": "uint256"
                }
            ],
            "stateMutability": "view",
            "type": "function"
        },
        {
            "inputs": [],
            "name": "totalInvestedETH",
            "outputs": [
                {
                    "internalType": "uint256",
                    "name": "",
                    "type": "uint256"
                }
            ],
            "stateMutability": "view",
            "type": "function"
        },
        {
            "inputs": [
                {
                    "internalType": "address",
                    "name": "newOwner",
                    "type": "address"
                }
            ],
            "name": "transferOwnership",
            "outputs": [],
            "stateMutability": "nonpayable",
            "type": "function"
        },
        {
            "inputs": [
                {
                    "internalType": "address",
                    "name": "",
                    "type": "address"
                }
            ],
            "name": "userInfo",
            "outputs": [
                {
                    "internalType": "uint256",
                    "name": "debt",
                    "type": "uint256"
                },
                {
                    "internalType": "uint256",
                    "name": "total",
                    "type": "uint256"
                },
                {
                    "internalType": "uint256",
                    "name": "totalInvestedETH",
                    "type": "uint256"
                }
            ],
            "stateMutability": "view",
            "type": "function"
        },
        {
            "inputs": [],
            "name": "withdrawBalance",
            "outputs": [],
            "stateMutability": "nonpayable",
            "type": "function"
        },
        {
            "inputs": [],
            "name": "withdrawETH",
            "outputs": [],
            "stateMutability": "payable",
            "type": "function"
        },
        {
            "inputs": [],
            "name": "withdrawNotSoldTokens",
            "outputs": [],
            "stateMutability": "nonpayable",
            "type": "function"
        }
    ],
    "bytecode": "0x6080604052601d805461ffff60a01b191690556276a7006025553480156200002657600080fd5b506040516200426e3803806200426e83398101604081905262000049916200088b565b620000543362000353565b60018055600280546001600160a01b0319166001600160a01b038a169081179091556040805163313ce56760e01b8152905163313ce567916004808201926020929091908290030181865afa158015620000b2573d6000803e3d6000fd5b505050506040513d601f19601f82011682018060405250810190620000d89190620009d4565b60ff16600355601980546001600160a01b038087166001600160a01b0319909216919091179091558751600555602088015160065560408801516007556060880151600855608088015160095560a0880151600a5560c0880151600b5560e0880151600c5561010088810151600d55610120890151600e5560278054918801511515600160a01b026001600160a81b0319909216928416929092171790556200018186620003a3565b60e087015162000195906201518062000a16565b6025558451601280546001600160a01b03199081166001600160a01b039384161782556020880151601380548316918516919091179055604088015160148054831691851691909117905560608801516015805460808b015160a08c01519387166001600160b81b031990921691909117600160a01b62ffffff928316021762ffffff60b81b1916600160b81b919093160291909117905560c08801516016805490921693169290921790915560e08601518691906200025a906017906002620004ae565b5061010091909101516006909101805491151560ff19909216919091179055601254601d80546001600160a01b0319166001600160a01b03909216919091179055620002a6836200049c565b6024805460ff1916831515179055600e54600090620002c89061271062000a36565b9050600181156200034057600d54600090620002e5908462000a62565b9050806000036200031357600d54620002ff908462000a79565b6200030b908362000a90565b91506200033e565b600d5462000322908462000a79565b6200032f90600162000a90565b6200033b908362000a90565b91505b505b6026555062000c01975050505050505050565b600080546001600160a01b038381166001600160a01b0319831681178455604051919092169283917f8be0079c531659141344cd1fd0a4f28419497f9722a3daafe3b4186f6b6457e09190a35050565b6020810151815110620004185760405162461bcd60e51b815260206004820152603260248201527f53746172742074696d657374616d70206d757374206265206c6573732074686160448201527106e2066696e6973682074696d657374616d760741b60648201526084015b60405180910390fd5b42816020015111620004865760405162461bcd60e51b815260206004820152603060248201527f46696e6973682074696d657374616d70206d757374206265206d6f726520746860448201526f616e2063757272656e7420626c6f636b60801b60648201526084016200040f565b8051600f55602081015160105560400151601155565b6004620004aa828262000b35565b5050565b6001830191839082156200053f5791602002820160005b838211156200050c57835183826101000a81548162ffffff021916908360020b62ffffff1602179055509260200192600301602081600201049283019260010302620004c5565b80156200053d5782816101000a81549062ffffff02191690556003016020816002010492830192600103026200050c565b505b506200054d92915062000551565b5090565b5b808211156200054d576000815560010162000552565b6001600160a01b03811681146200057e57600080fd5b50565b634e487b7160e01b600052604160045260246000fd5b60405161012081016001600160401b0381118282101715620005bd57620005bd62000581565b60405290565b60405161014081016001600160401b0381118282101715620005bd57620005bd62000581565b604051601f8201601f191681016001600160401b038111828210171562000614576200061462000581565b604052919050565b6000606082840312156200062f57600080fd5b604051606081016001600160401b038111828210171562000654576200065462000581565b80604052508091508251815260208301516020820152604083015160408201525092915050565b8051620006888162000568565b919050565b8051600281900b81146200068857600080fd5b600082601f830112620006b257600080fd5b604080519081016001600160401b0381118282101715620006d757620006d762000581565b8060405250806040840185811115620006ef57600080fd5b845b81811015620007145762000705816200068d565b835260209283019201620006f1565b509195945050505050565b805180151581146200068857600080fd5b600061014082840312156200074457600080fd5b6200074e62000597565b90506200075b826200067b565b81526200076b602083016200067b565b60208201526200077e604083016200067b565b604082015262000791606083016200067b565b6060820152620007a4608083016200068d565b6080820152620007b760a083016200068d565b60a0820152620007ca60c083016200067b565b60c0820152620007de8360e08401620006a0565b60e0820152620007f261012083016200071f565b61010082015292915050565b600082601f8301126200081057600080fd5b81516001600160401b038111156200082c576200082c62000581565b602062000842601f8301601f19168201620005e9565b82815285828487010111156200085757600080fd5b60005b83811015620008775785810183015182820184015282016200085a565b506000928101909101919091529392505050565b600080600080600080600080888a03610380811215620008aa57600080fd5b8951620008b78162000568565b9850610140601f198201811315620008ce57600080fd5b620008d8620005c3565b915060208b0151825260408b0151602083015260608b0151604083015260808b0151606083015260a08b0151608083015260c08b015160a083015260e08b015160c0830152610100808c015160e0840152610120808d015182850152828d01518185015250505080975050620009538a6101608b016200061c565b9550620009658a6101c08b0162000730565b9450620009766103008a016200067b565b6103208a01519094506001600160401b038111156200099457600080fd5b620009a28b828c01620007fe565b935050620009b46103408a016200071f565b9150620009c56103608a016200067b565b90509295985092959890939650565b600060208284031215620009e757600080fd5b815160ff81168114620009f957600080fd5b9392505050565b634e487b7160e01b600052601160045260246000fd5b808202811582820484141762000a305762000a3062000a00565b92915050565b8181038181111562000a305762000a3062000a00565b634e487b7160e01b600052601260045260246000fd5b60008262000a745762000a7462000a4c565b500690565b60008262000a8b5762000a8b62000a4c565b500490565b8082018082111562000a305762000a3062000a00565b600181811c9082168062000abb57607f821691505b60208210810362000adc57634e487b7160e01b600052602260045260246000fd5b50919050565b601f82111562000b3057600081815260208120601f850160051c8101602086101562000b0b5750805b601f850160051c820191505b8181101562000b2c5782815560010162000b17565b5050505b505050565b81516001600160401b0381111562000b515762000b5162000581565b62000b698162000b62845462000aa6565b8462000ae2565b602080601f83116001811462000ba1576000841562000b885750858301515b600019600386901b1c1916600185901b17855562000b2c565b600085815260208120601f198616915b8281101562000bd25788860151825594840194600190910190840162000bb1565b508582101562000bf15787850151600019600388901b60f8161c191681555b5050505050600190811b01905550565b61365d8062000c116000396000f3fe6080604052600436106102465760003560e01c806362bea93f11610139578063c884ef83116100b6578063e086e5ec1161007a578063e086e5ec1461074e578063f2fde38b14610756578063f7c618c114610776578063f84b903e14610796578063f851a440146107b7578063fd46a171146107d757600080fd5b8063c884ef8314610612578063ca7197381461063f578063cd9c293f14610660578063d8d2a56d14610680578063ddeae0331461072e57600080fd5b80638bdadaa1116100fd5780638bdadaa11461059d5780638da5cb5b146105b3578063b13aaebd146105d1578063b8b65ef3146105e7578063c6a0e27d146105fd57600080fd5b806362bea93f14610528578063710075091461053d578063715018a614610552578063747daec5146105675780637dc2cd981461058757600080fd5b80632dcc8c66116101c75780634e71d92d1161018b5780634e71d92d146104be578063586360ce146104d3578063590e1ae3146104e95780635924079c146104fe5780635fd8c7101461051357600080fd5b80632dcc8c6614610431578063313ce567146104535780633f138d4b14610469578063491447a8146104895780634b1a4c0c146104a857600080fd5b80631b9265b81161020e5780631b9265b81461037857806324bf5d4114610382578063295a5212146103b35780632a123b16146103cd5780632b49657f1461040557600080fd5b8063086146d21461024b5780630df5dd191461027357806312065fe01461028957806312d3675e1461029c5780631959a00214610321575b600080fd5b34801561025757600080fd5b506102606107ed565b6040519081526020015b60405180910390f35b34801561027f57600080fd5b5061026060215481565b34801561029557600080fd5b5047610260565b3480156102a857600080fd5b50600554600654600754600854600954600a54600b54600c54600d54600e546102d7999897969594939291908a565b604080519a8b5260208b0199909952978901969096526060880194909452608087019290925260a086015260c085015260e08401526101008301526101208201526101400161026a565b34801561032d57600080fd5b5061035d61033c366004612e14565b601e6020526000908152604090208054600182015460029092015490919083565b6040805193845260208401929092529082015260600161026a565b6103806108a0565b005b34801561038e57600080fd5b50601d546103a390600160a81b900460ff1681565b604051901515815260200161026a565b3480156103bf57600080fd5b506024546103a39060ff1681565b3480156103d957600080fd5b506019546103ed906001600160a01b031681565b6040516001600160a01b03909116815260200161026a565b34801561041157600080fd5b50610260610420366004612e14565b602080526000908152604090205481565b34801561043d57600080fd5b50610446610b0a565b60405161026a9190612e81565b34801561045f57600080fd5b5061026060035481565b34801561047557600080fd5b50610380610484366004612e94565b610b98565b34801561049557600080fd5b50600f5460105460115461035d92919083565b3480156104b457600080fd5b50610260601b5481565b3480156104ca57600080fd5b50610380610bd3565b3480156104df57600080fd5b50610260601c5481565b3480156104f557600080fd5b50610380610c8f565b34801561050a57600080fd5b506103a3610e65565b34801561051f57600080fd5b50610380610ecf565b34801561053457600080fd5b50610260610f5a565b34801561054957600080fd5b50610380610ff4565b34801561055e57600080fd5b50610380611152565b34801561057357600080fd5b50610380610582366004612f2f565b611166565b34801561059357600080fd5b5061026060265481565b3480156105a957600080fd5b5061026060235481565b3480156105bf57600080fd5b506000546001600160a01b03166103ed565b3480156105dd57600080fd5b5061026060255481565b3480156105f357600080fd5b5061026060225481565b34801561060957600080fd5b50610380611172565b34801561061e57600080fd5b5061026061062d366004612e14565b601f6020526000908152604090205481565b34801561064b57600080fd5b506027546103a390600160a01b900460ff1681565b34801561066c57600080fd5b50601d546103ed906001600160a01b031681565b34801561068c57600080fd5b506012546013546014546015546016546018546106d9956001600160a01b039081169581169481169380821693600160a01b8204600290810b94600160b81b909304900b92169060ff1688565b604080516001600160a01b03998a1681529789166020890152958816958701959095529286166060860152600291820b6080860152900b60a084015290921660c082015290151560e08201526101000161026a565b34801561073a57600080fd5b50610380610749366004612e14565b611247565b610380611300565b34801561076257600080fd5b50610380610771366004612e14565b611d51565b34801561078257600080fd5b506002546103ed906001600160a01b031681565b3480156107a257600080fd5b50601d546103a390600160a01b900460ff1681565b3480156107c357600080fd5b506027546103ed906001600160a01b031681565b3480156107e357600080fd5b50610260601a5481565b600080805b602654811015610872578060255461080a9190612fc5565b6010546108179190612fdc565b4210158015610849575061082c816001612fdc565b6025546108399190612fc5565b6010546108469190612fdc565b42105b1561086057610859816001612fdc565b9150610872565b8061086a81612fef565b9150506107f2565b506026546025546108839190612fc5565b6010546108909190612fdc565b421061089b57506026545b919050565b600f544210156108e55760405162461bcd60e51b815260206004820152600b60248201526a139bdd081cdd185c9d195960aa1b60448201526064015b60405180910390fd5b601054421061091e5760405162461bcd60e51b8152602060048201526005602482015264115b99195960da1b60448201526064016108dc565b6008543410156109675760405162461bcd60e51b815260206004820152601460248201527313195cdcc81d1a195b881b5a5b88185b5bdd5b9d60621b60448201526064016108dc565b6009543411156109b05760405162461bcd60e51b8152602060048201526014602482015273135bdc99481d1a195b881b585e08185b5bdd5b9d60621b60448201526064016108dc565b600754601a546109c09034611dc7565b11156109fb5760405162461bcd60e51b815260206004820152600a60248201526913dd995c999a5b1b195960b21b60448201526064016108dc565b336000908152601e602052604090206009546002820154610a1c9034611dc7565b1115610a615760405162461bcd60e51b8152602060048201526014602482015273135bdc99481d1a195b881b585e08185b5bdd5b9d60621b60448201526064016108dc565b6000610a7234600560000154611ddc565b601a54909150610a829034611dc7565b601a55601b54610a929082611dc7565b601b556002820154610aa49034611dc7565b60028301556001820154610ab89082611dc7565b60018301558154610ac99082611dc7565b8255604080513481526020810183905233917fb55d4ca2fc644ca3f8cdc9c907826e24acd68d2b2d4d73f48b8f2378dbaedf5d910160405180910390a25050565b60048054610b1790613008565b80601f0160208091040260200160405190810160405280929190818152602001828054610b4390613008565b8015610b905780601f10610b6557610100808354040283529160200191610b90565b820191906000526020600020905b815481529060010190602001808311610b7357829003601f168201915b505050505081565b610ba0611e02565b6002546001600160a01b0390811690831603610bbb57600080fd5b610bcf6001600160a01b0383163383611e5c565b5050565b6000610bdd6107ed565b905060008111610c255760405162461bcd60e51b8152602060048201526013602482015272131a5cdd1a5b99c81b9bdd081cdd185c9d1959606a1b60448201526064016108dc565b336000908152601f60205260409020548111610c835760405162461bcd60e51b815260206004820152601b60248201527f416c726561647920636c61696d6564206f7220726566756e646564000000000060448201526064016108dc565b610c8c33611eae565b50565b6010544211610cb05760405162461bcd60e51b81526004016108dc90613042565b600654601a5410610d035760405162461bcd60e51b815260206004820181905260248201527f5468652049444f20706f6f6c2068617320726561636820736f6674206361702e60448201526064016108dc565b336000908152601f602052604090205415610d525760405162461bcd60e51b815260206004820152600f60248201526e105b1c9958591e4818db185a5b5959608a1b60448201526064016108dc565b336000908152601e60205260409020600281015480610db35760405162461bcd60e51b815260206004820152601760248201527f596f752068617665206e6f20696e766573746d656e742e00000000000000000060448201526064016108dc565b602654336000818152601f6020526040808220939093558085556002850181905560018501819055915183908381818185875af1925050503d8060008114610e17576040519150601f19603f3d011682016040523d82523d6000602084013e610e1c565b606091505b5050905080610e605760405162461bcd60e51b815260206004820152601060248201526f2a3930b739b332b9103330b4b632b21760811b60448201526064016108dc565b505050565b6027546000906001600160a01b03163314610eaf5760405162461bcd60e51b815260206004820152600a60248201526927b7363c9030b236b4b760b11b60448201526064016108dc565b50601d805460ff60a81b1916600160a81b90811791829055900460ff1690565b604051600090339047908381818185875af1925050503d8060008114610f11576040519150601f19603f3d011682016040523d82523d6000602084013e610f16565b606091505b5050905080610c8c5760405162461bcd60e51b815260206004820152601060248201526f5472616e73666572206661696c65642160801b60448201526064016108dc565b6002546040516370a0823160e01b815230600482015260009182916001600160a01b03909116906370a0823190602401602060405180830381865afa158015610fa7573d6000803e3d6000fd5b505050506040513d601f19601f82011682018060405250810190610fcb9190613079565b9050610fee601b54610fe8601c5484611dc790919063ffffffff16565b906122bc565b91505090565b610ffc611e02565b601054421161101d5760405162461bcd60e51b81526004016108dc90613042565b600654601a54106110705760405162461bcd60e51b815260206004820181905260248201527f5468652049444f20706f6f6c2068617320726561636820736f6674206361702e60448201526064016108dc565b6002546040516370a0823160e01b81523060048201526000916001600160a01b0316906370a0823190602401602060405180830381865afa1580156110b9573d6000803e3d6000fd5b505050506040513d601f19601f820116820180604052508101906110dd9190613079565b90506000811161113b5760405162461bcd60e51b815260206004820152602360248201527f5468652049444f20706f6f6c20686173206e6f7420726566756e6420746f6b6560448201526237399760e91b60648201526084016108dc565b600254610c8c906001600160a01b03163383611e5c565b61115a611e02565b61116460006122c8565b565b6004610bcf82826130e0565b61117a611e02565b601d54600160a01b900460ff166111df5760405162461bcd60e51b815260206004820152602360248201527f576974686472617720616c6c6f7765642061667465722064697374726962757460448201526232b21760e91b60648201526084016108dc565b60006111e9610f5a565b90506000811161113b5760405162461bcd60e51b815260206004820152602360248201527f5468652049444f20706f6f6c20686173206e6f7420756e736f6c6420746f6b6560448201526237399760e91b60648201526084016108dc565b60006112516107ed565b9050600081116112995760405162461bcd60e51b8152602060048201526013602482015272131a5cdd1a5b99c81b9bdd081cdd185c9d1959606a1b60448201526064016108dc565b336000908152601f602052604090205481116112f75760405162461bcd60e51b815260206004820152601b60248201527f416c726561647920636c61696d6564206f7220726566756e646564000000000060448201526064016108dc565b610bcf82611eae565b611308611e02565b60105442116113295760405162461bcd60e51b81526004016108dc90613042565b600654601a54101561134d5760405162461bcd60e51b81526004016108dc906131a0565b601d54600160a01b900460ff161561139e5760405162461bcd60e51b815260206004820152601460248201527320b63932b0b23c903234b9ba3934b13aba32b21760611b60448201526064016108dc565b60275447906000908190600160a01b900460ff16151581036113dd576113d26127106113cc856101f4612318565b90612324565b91506000905061142d565b6113ee6127106113cc8560c8612318565b915061142a6127106113cc60c8611424612710600560060154896114129190612fc5565b61141c91906131fa565b600554611ddc565b90612318565b90505b600b541580159061143f5750600a5415155b15611bd857600b54600090612710906114589086612fc5565b61146291906131fa565b90506000611470828661321c565b905061147c848261321c565b9050600061148e836005800154611ddc565b60245490915060ff1615156000036117515760025460125460405163095ea7b360e01b81526001600160a01b0391821660048201526024810184905291169063095ea7b3906044016020604051808303816000875af11580156114f5573d6000803e3d6000fd5b505050506040513d601f19601f82011682018060405250810190611519919061322f565b5060155460025460009182916001600160a01b0391821691161015611542575081905083611548565b50839050815b60115442101561172757601954600090819061157090859085906001600160a01b0316612330565b601454600254601554604051630b4c774160e11b81526001600160a01b039283166004820152908216602482015261012c604482015296985091965060009591169350631698ee8292506064019050602060405180830381865afa1580156115dc573d6000803e3d6000fd5b505050506040513d601f19601f820116820180604052508101906116009190613251565b601954601d54604080516395d89b4160e01b8152905193945084936001600160a01b0393841693633028d1569386939116916395d89b41916004808201926000929091908290030181865afa15801561165d573d6000803e3d6000fd5b505050506040513d6000823e601f3d908101601f19168201604052611685919081019061326e565b60405160200161169591906132dc565b60408051601f19818403018152908290526011546001600160e01b031960e086901b1683526116ce93928a91339160009060040161330b565b6020604051808303816000875af11580156116ed573d6000803e3d6000fd5b505050506040513d601f19601f820116820180604052508101906117119190613251565b5061171c838961321c565b97505050505061174a565b6000611734838333612330565b9450505050508085611746919061321c565b9450505b5050611b37565b60135460025460405163095ea7b360e01b81526001600160a01b039283166004820181905260248201859052929091169063095ea7b3906044016020604051808303816000875af11580156117aa573d6000803e3d6000fd5b505050506040513d601f19601f820116820180604052508101906117ce919061322f565b506002546000906001600160a01b038084169163f305d71991889116868580306117fa42610168612fdc565b60405160e089901b6001600160e01b03191681526001600160a01b039687166004820152602481019590955260448501939093526064840191909152909216608482015260a481019190915260c40160606040518083038185885af1158015611867573d6000803e3d6000fd5b50505050506040513d601f19601f8201168201806040525081019061188c9190613355565b60145460025460155460405163e6a4390560e01b81526001600160a01b03928316600482015290821660248201529295506000945016915063e6a4390590604401602060405180830381865afa1580156118ea573d6000803e3d6000fd5b505050506040513d601f19601f8201168201806040525081019061190e9190613251565b6011549091508190421015611ab35760195460405163095ea7b360e01b81526001600160a01b039182166004820152602481018590529082169063095ea7b3906044016020604051808303816000875af1158015611970573d6000803e3d6000fd5b505050506040513d601f19601f82011682018060405250810190611994919061322f565b50601960009054906101000a90046001600160a01b03166001600160a01b0316633028d1563483846001600160a01b03166395d89b416040518163ffffffff1660e01b8152600401600060405180830381865afa1580156119f9573d6000803e3d6000fd5b505050506040513d6000823e601f3d908101601f19168201604052611a21919081019061326e565b604051602001611a319190613383565b60408051601f19818403018152908290526011546001600160e01b031960e087901b168352611a6a93928a91339160019060040161330b565b60206040518083038185885af1158015611a88573d6000803e3d6000fd5b50505050506040513d601f19601f82011682018060405250810190611aad9190613251565b50611b32565b60405163a9059cbb60e01b8152336004820152602481018490526001600160a01b0382169063a9059cbb906044016020604051808303816000875af1158015611b00573d6000803e3d6000fd5b505050506040513d601f19601f82011682018060405250810190611b24919061322f565b50611b2f3487612fdc565b95505b505050505b604051600090339084908381818185875af1925050503d8060008114611b79576040519150601f19603f3d011682016040523d82523d6000602084013e611b7e565b606091505b5050905080611bcf5760405162461bcd60e51b815260206004820152601c60248201527f5472616e73666572206574685769746864726177206661696c65642e0000000060448201526064016108dc565b50505050611c79565b600033611be5848661321c565b604051600081818185875af1925050503d8060008114611c21576040519150601f19603f3d011682016040523d82523d6000602084013e611c26565b606091505b5050905080611c775760405162461bcd60e51b815260206004820152601860248201527f5472616e736665722062616c616e6365206661696c65642e000000000000000060448201526064016108dc565b505b6027546040516000916001600160a01b03169084908381818185875af1925050503d8060008114611cc6576040519150601f19603f3d011682016040523d82523d6000602084013e611ccb565b606091505b5050905080611d155760405162461bcd60e51b81526020600482015260166024820152752a3930b739b332b9103332b2a7a8103330b4b632b21760511b60448201526064016108dc565b8115611d3857602754600254611d38916001600160a01b03918216911684611e5c565b5050601d805460ff60a01b1916600160a01b1790555050565b611d59611e02565b6001600160a01b038116611dbe5760405162461bcd60e51b815260206004820152602660248201527f4f776e61626c653a206e6577206f776e657220697320746865207a65726f206160448201526564647265737360d01b60648201526084016108dc565b610c8c816122c8565b6000611dd38284612fdc565b90505b92915050565b600081600354600a611dee9190613499565b611df89085612fc5565b611dd391906131fa565b6000546001600160a01b031633146111645760405162461bcd60e51b815260206004820181905260248201527f4f776e61626c653a2063616c6c6572206973206e6f7420746865206f776e657260448201526064016108dc565b604080516001600160a01b038416602482015260448082018490528251808303909101815260649091019091526020810180516001600160e01b031663a9059cbb60e01b179052610e609084906129a2565b611eb6612a77565b6010544211611ed75760405162461bcd60e51b81526004016108dc90613042565b600654601a541015611efb5760405162461bcd60e51b81526004016108dc906131a0565b6001600160a01b0381166000908152601e6020526040812090611f1c6107ed565b8254909150611f6d5760405162461bcd60e51b815260206004820152601c60248201527f596f7520646f206e6f742068617665206465627420746f6b656e732e0000000060448201526064016108dc565b60265481036120c257336000908152601f60205260408120548103611fd4578254611fcc5760405162461bcd60e51b815260206004820152600f60248201526e155cd95c881b9bdd081a5b9d995cdd608a1b60448201526064016108dc565b508154612038565b3360009081526020805260409020546120275760405162461bcd60e51b815260206004820152601560248201527408155cd95c881a185cc818db185a5b595908105b1b605a1b60448201526064016108dc565b503360009081526020805260409020545b60025461204f906001600160a01b03163383611e5c565b33600090815260208080526040808320839055602654601f90925290912055601c5461207b9082611dc7565b601c556040518181526001600160a01b038516907f6352c5382c4a4578e712449ca65e83cdb392d045dfcf1cad9615189db2da244b9060200160405180910390a2506122a1565b336000908152601f602052604081205482116121385760405162461bcd60e51b815260206004820152602f60248201527f436c61696d656420746f6f206d616e792074696d657320636f6d70617265642060448201526e1d1bc81d1a19481cdd185b99185c99608a1b60648201526084016108dc565b336000908152601f60205260409020545b8281101561223957806000036121a357600e54845460009161217391612710916113cc9190612318565b905061217f8184612fdc565b855490935061218e90826122bc565b33600090815260208052604090205550612201565b60006121c76127106113cc600560080154886001015461231890919063ffffffff16565b90506121d38184612fdc565b3360009081526020805260409020549093506121f090829061321c565b336000908152602080526040902055505b336000908152601f60205260408120805460019290612221908490612fdc565b9091555081905061223181612fef565b915050612149565b50600254612251906001600160a01b03163383611e5c565b601c5461225e9082611dc7565b601c556040518181526001600160a01b038516907f6352c5382c4a4578e712449ca65e83cdb392d045dfcf1cad9615189db2da244b9060200160405180910390a2505b503360009081526020805260409020549055610c8c60018055565b6000611dd3828461321c565b600080546001600160a01b038381166001600160a01b0319831681178455604051919092169283917f8be0079c531659141344cd1fd0a4f28419497f9722a3daafe3b4186f6b6457e09190a35050565b6000611dd38284612fc5565b6000611dd382846131fa565b60155460125460405163095ea7b360e01b81526001600160a01b03918216600482015260001960248201526000928392839283928392169063095ea7b3906044016020604051808303816000875af1158015612390573d6000803e3d6000fd5b505050506040513d601f19601f820116820180604052508101906123b4919061322f565b6123f15760405162461bcd60e51b815260206004820152600e60248201526d185c1c1c9bdd994819985a5b195960921b60448201526064016108dc565b60025460125460405163095ea7b360e01b81526001600160a01b039182166004820152600019602482015291169063095ea7b3906044016020604051808303816000875af1158015612447573d6000803e3d6000fd5b505050506040513d601f19601f8201168201806040525081019061246b919061322f565b6124dd5760405162461bcd60e51b815260206004820152603860248201527f417070726f766520726577617264546f6b656e20746f206e6f6e66756e67696260448201527f6c65506f736974696f6e4d616e61676572206661696c6564000000000000000060648201526084016108dc565b60155460405163095ea7b360e01b815230600482015260001960248201526001600160a01b039091169063095ea7b3906044016020604051808303816000875af115801561252f573d6000803e3d6000fd5b505050506040513d601f19601f82011682018060405250810190612553919061322f565b6125905760405162461bcd60e51b815260206004820152600e60248201526d185c1c1c9bdd994819985a5b195960921b60448201526064016108dc565b60025460405163095ea7b360e01b815230600482015260001960248201526001600160a01b039091169063095ea7b3906044016020604051808303816000875af11580156125e2573d6000803e3d6000fd5b505050506040513d601f19601f82011682018060405250810190612606919061322f565b6126665760405162461bcd60e51b815260206004820152602b60248201527f417070726f766520726577617264546f6b656e20746f207468697320636f6e7460448201526a1c9858dd0819985a5b195960aa1b60648201526084016108dc565b6002546015546016546001600160a01b039283169291821691600091829161268e9116612ad0565b6015546002549294509092506001600160a01b03908116911610156127255760006126b9828d612fdc565b60155460408051630d0e30db60e41b815290519293506001600160a01b039091169163d0e30db0918491600480830192600092919082900301818588803b15801561270357600080fd5b505af1158015612717573d6000803e3d6000fd5b5050505050819550506127ba565b6015546002546001600160a01b0391821695501692506000612747838e612fdc565b9050829550601260030160009054906101000a90046001600160a01b03166001600160a01b031663d0e30db0826040518263ffffffff1660e01b81526004016000604051808303818588803b15801561279f57600080fd5b505af11580156127b3573d6000803e3d6000fd5b5050505050505b601d54601654604051630e24ac2560e11b81526001600160a01b038781166004830152868116602483015261012c60448301529182166064820152911690631c49584a906084016020604051808303816000875af1158015612820573d6000803e3d6000fd5b505050506040513d601f19601f820116820180604052508101906128449190613251565b5060408051610180810182526001600160a01b0386811682528516602082015261012c81830152601554600160a01b8104600290810b6060840152600160b81b909104810b608083015282518084019384905260009360a08401926017918287855b825461010083900a900460020b81526020600583018190049384019360010360039093019290920291018084116128a657505050928452505050602081018f905260408082018f905260006060830181905260808301526001600160a01b038e811660a08401524260c090930192909252601d54905163752a031960e11b8152929350169063ea5406329061293f9084906004016134d6565b6080604051808303816000875af115801561295e573d6000803e3d6000fd5b505050506040513d601f19601f8201168201806040525081019061298291906135b8565b809a50819b50829c50839d50505050505050505050939792965093509350565b60006129f7826040518060400160405280602081526020017f5361666545524332303a206c6f772d6c6576656c2063616c6c206661696c6564815250856001600160a01b0316612b129092919063ffffffff16565b9050805160001480612a18575080806020019051810190612a18919061322f565b610e605760405162461bcd60e51b815260206004820152602a60248201527f5361666545524332303a204552433230206f7065726174696f6e20646964206e6044820152691bdd081cdd58d8d9595960b21b60648201526084016108dc565b600260015403612ac95760405162461bcd60e51b815260206004820152601f60248201527f5265656e7472616e637947756172643a207265656e7472616e742063616c6c0060448201526064016108dc565b6002600155565b600080612aee620186a0600160601b6001600160a01b038616612b2b565b9150612b0b620186a06001600160a01b038516600160601b612b2b565b9050915091565b6060612b218484600085612b66565b90505b9392505050565b6000612b38848484612c43565b905060008280612b4a57612b4a6131e4565b8486091115612b245780612b5d81612fef565b95945050505050565b606082471015612bc75760405162461bcd60e51b815260206004820152602660248201527f416464726573733a20696e73756666696369656e742062616c616e636520666f6044820152651c8818d85b1b60d21b60648201526084016108dc565b600080866001600160a01b03168587604051612be3919061360b565b60006040518083038185875af1925050503d8060008114612c20576040519150601f19603f3d011682016040523d82523d6000602084013e612c25565b606091505b5091509150612c3687838387612d61565b925050505b949350505050565b6000808060001985870985870292508281108382030391505080600003612ca95760008411612c9e5760405162461bcd60e51b8152602060048201526007602482015266302064656e6f6d60c81b60448201526064016108dc565b508290049050612b24565b808411612ce95760405162461bcd60e51b815260206004820152600e60248201526d64656e6f6d203c3d2070726f643160901b60448201526064016108dc565b6000848688098084039381119092039190506000612d0986196001612fdc565b8616958690049560026003880281188089028203028089028203028089028203028089028203028089028203028089029091030260008290038290046001019490940294049390931791909102925050509392505050565b60608315612dd0578251600003612dc9576001600160a01b0385163b612dc95760405162461bcd60e51b815260206004820152601d60248201527f416464726573733a2063616c6c20746f206e6f6e2d636f6e747261637400000060448201526064016108dc565b5081612c3b565b612c3b8383815115612de55781518083602001fd5b8060405162461bcd60e51b81526004016108dc9190612e81565b6001600160a01b0381168114610c8c57600080fd5b600060208284031215612e2657600080fd5b8135612b2481612dff565b60005b83811015612e4c578181015183820152602001612e34565b50506000910152565b60008151808452612e6d816020860160208601612e31565b601f01601f19169290920160200192915050565b602081526000611dd36020830184612e55565b60008060408385031215612ea757600080fd5b8235612eb281612dff565b946020939093013593505050565b634e487b7160e01b600052604160045260246000fd5b604051601f8201601f1916810167ffffffffffffffff81118282101715612eff57612eff612ec0565b604052919050565b600067ffffffffffffffff821115612f2157612f21612ec0565b50601f01601f191660200190565b600060208284031215612f4157600080fd5b813567ffffffffffffffff811115612f5857600080fd5b8201601f81018413612f6957600080fd5b8035612f7c612f7782612f07565b612ed6565b818152856020838501011115612f9157600080fd5b81602084016020830137600091810160200191909152949350505050565b634e487b7160e01b600052601160045260246000fd5b8082028115828204841417611dd657611dd6612faf565b80820180821115611dd657611dd6612faf565b60006001820161300157613001612faf565b5060010190565b600181811c9082168061301c57607f821691505b60208210810361303c57634e487b7160e01b600052602260045260246000fd5b50919050565b6020808252601b908201527f5468652049444f20706f6f6c20686173206e6f7420656e6465642e0000000000604082015260600190565b60006020828403121561308b57600080fd5b5051919050565b601f821115610e6057600081815260208120601f850160051c810160208610156130b95750805b601f850160051c820191505b818110156130d8578281556001016130c5565b505050505050565b815167ffffffffffffffff8111156130fa576130fa612ec0565b61310e816131088454613008565b84613092565b602080601f831160018114613143576000841561312b5750858301515b600019600386901b1c1916600185901b1785556130d8565b600085815260208120601f198616915b8281101561317257888601518255948401946001909101908401613153565b50858210156131905787850151600019600388901b60f8161c191681555b5050505050600190811b01905550565b60208082526024908201527f5468652049444f20706f6f6c20646964206e6f7420726561636820736f66742060408201526331b0b81760e11b606082015260800190565b634e487b7160e01b600052601260045260246000fd5b60008261321757634e487b7160e01b600052601260045260246000fd5b500490565b81810381811115611dd657611dd6612faf565b60006020828403121561324157600080fd5b81518015158114612b2457600080fd5b60006020828403121561326357600080fd5b8151612b2481612dff565b60006020828403121561328057600080fd5b815167ffffffffffffffff81111561329757600080fd5b8201601f810184136132a857600080fd5b80516132b6612f7782612f07565b8181528560208385010111156132cb57600080fd5b612b5d826020830160208601612e31565b600082516132ee818460208701612e31565b6a1037333a103637b1b5b2b960a91b920191825250600b01919050565b600060018060a01b03808916835260c0602084015261332d60c0840189612e55565b60408401979097529490941660608201526080810192909252151560a0909101525092915050565b60008060006060848603121561336a57600080fd5b8351925060208401519150604084015190509250925092565b60008251613395818460208701612e31565b6d103a37b5b2b739903637b1b5b2b960911b920191825250600e01919050565b600181815b808511156133f05781600019048211156133d6576133d6612faf565b808516156133e357918102915b93841c93908002906133ba565b509250929050565b60008261340757506001611dd6565b8161341457506000611dd6565b816001811461342a576002811461343457613450565b6001915050611dd6565b60ff84111561344557613445612faf565b50506001821b611dd6565b5060208310610133831016604e8410600b8410161715613473575081810a611dd6565b61347d83836133b5565b806000190482111561349157613491612faf565b029392505050565b6000611dd383836133f8565b8060005b60028082106134b857506134d0565b8251900b8452602093840193909101906001016134a9565b50505050565b81516001600160a01b031681526101a08101602083015161350260208401826001600160a01b03169052565b506040830151613519604084018262ffffff169052565b50606083015161352e606084018260020b9052565b506080830151613543608084018260020b9052565b5060a083015161355660a08401826134a5565b5060c083015160e0838101919091528301516101008084019190915283015161012080840191909152830151610140808401919091528301516101606135a6818501836001600160a01b03169052565b80850151610180850152505092915050565b600080600080608085870312156135ce57600080fd5b8451935060208501516fffffffffffffffffffffffffffffffff811681146135f557600080fd5b6040860151606090960151949790965092505050565b6000825161361d818460208701612e31565b919091019291505056fea2646970667358221220f9f915455699e832ccbc496f226c6fb07755ab9cc2d9065ecde273064f7b26db64736f6c63430008130033",
    "linkReferences": {},
    "deployedLinkReferences": {}
}