{
  "_format": "hh-sol-artifact-1",
  "contractName": "TokenLockerFactory",
  "sourceName": "contracts/TokenLockerFactory.sol",
  "abi": [
    {
      "inputs": [
        {
          "internalType": "address",
          "name": "_basePositionManager",
          "type": "address"
        }
      ],
      "stateMutability": "nonpayable",
      "type": "constructor"
    },
    {
      "anonymous": false,
      "inputs": [
        {
          "indexed": false,
          "internalType": "uint256",
          "name": "lockerId",
          "type": "uint256"
        },
        {
          "indexed": true,
          "internalType": "address",
          "name": "lockerAddress",
          "type": "address"
        },
        {
          "indexed": false,
          "internalType": "address",
          "name": "tokenAddress",
          "type": "address"
        }
      ],
      "name": "LockerCreated",
      "type": "event"
    },
    {
      "anonymous": false,
      "inputs": [
        {
          "indexed": true,
          "internalType": "address",
          "name": "previousOwner",
          "type": "address"
        },
        {
          "indexed": true,
          "internalType": "address",
          "name": "newOwner",
          "type": "address"
        }
      ],
      "name": "OwnershipTransferred",
      "type": "event"
    },
    {
      "inputs": [],
      "name": "basePositionManager",
      "outputs": [
        {
          "internalType": "contract IBasePositionManager",
          "name": "",
          "type": "address"
        }
      ],
      "stateMutability": "view",
      "type": "function"
    },
    {
      "inputs": [
        {
          "internalType": "contract ERC20",
          "name": "_tokenAddress",
          "type": "address"
        },
        {
          "internalType": "string",
          "name": "_name",
          "type": "string"
        },
        {
          "internalType": "uint256",
          "name": "_lockAmount",
          "type": "uint256"
        },
        {
          "internalType": "address",
          "name": "_withdrawer",
          "type": "address"
        },
        {
          "internalType": "uint256",
          "name": "_withdrawTime",
          "type": "uint256"
        },
        {
          "internalType": "bool",
          "name": "mode",
          "type": "bool"
        }
      ],
      "name": "createLocker",
      "outputs": [
        {
          "internalType": "address",
          "name": "",
          "type": "address"
        }
      ],
      "stateMutability": "payable",
      "type": "function"
    },
    {
      "inputs": [],
      "name": "fee",
      "outputs": [
        {
          "internalType": "uint256",
          "name": "",
          "type": "uint256"
        }
      ],
      "stateMutability": "view",
      "type": "function"
    },
    {
      "inputs": [],
      "name": "lockerCount",
      "outputs": [
        {
          "internalType": "uint256",
          "name": "",
          "type": "uint256"
        }
      ],
      "stateMutability": "view",
      "type": "function"
    },
    {
      "inputs": [],
      "name": "owner",
      "outputs": [
        {
          "internalType": "address",
          "name": "",
          "type": "address"
        }
      ],
      "stateMutability": "view",
      "type": "function"
    },
    {
      "inputs": [],
      "name": "renounceOwnership",
      "outputs": [],
      "stateMutability": "nonpayable",
      "type": "function"
    },
    {
      "inputs": [
        {
          "internalType": "uint256",
          "name": "amount",
          "type": "uint256"
        }
      ],
      "name": "setFee",
      "outputs": [],
      "stateMutability": "nonpayable",
      "type": "function"
    },
    {
      "inputs": [
        {
          "internalType": "address",
          "name": "newOwner",
          "type": "address"
        }
      ],
      "name": "transferOwnership",
      "outputs": [],
      "stateMutability": "nonpayable",
      "type": "function"
    },
    {
      "inputs": [],
      "name": "withdrawFee",
      "outputs": [],
      "stateMutability": "nonpayable",
      "type": "function"
    }
  ],
  "bytecode": "0x60806040526000600155600060025534801561001a57600080fd5b50604051611aec380380611aec833981016040819052610039916100b7565b61004233610067565b600380546001600160a01b0319166001600160a01b03929092169190911790556100e7565b600080546001600160a01b038381166001600160a01b0319831681178455604051919092169283917f8be0079c531659141344cd1fd0a4f28419497f9722a3daafe3b4186f6b6457e09190a35050565b6000602082840312156100c957600080fd5b81516001600160a01b03811681146100e057600080fd5b9392505050565b6119f6806100f66000396000f3fe608060405260043610620000915760003560e01c8063ccd96eb61162000060578063ccd96eb61462000129578063cd9c293f1462000150578063ddca3f431462000172578063e941fa78146200018a578063f2fde38b14620001a257600080fd5b80633028d156146200009657806369fe0e2d14620000ca578063715018a614620000f15780638da5cb5b1462000109575b600080fd5b620000ad620000a736600462000976565b620001c7565b6040516001600160a01b0390911681526020015b60405180910390f35b348015620000d757600080fd5b50620000ef620000e936600462000a7d565b6200043d565b005b348015620000fe57600080fd5b50620000ef6200044c565b3480156200011657600080fd5b506000546001600160a01b0316620000ad565b3480156200013657600080fd5b506200014160015481565b604051908152602001620000c1565b3480156200015d57600080fd5b50600354620000ad906001600160a01b031681565b3480156200017f57600080fd5b506200014160025481565b3480156200019757600080fd5b50620000ef62000464565b348015620001af57600080fd5b50620000ef620001c136600462000a97565b62000500565b60006002543414620002195760405162461bcd60e51b815260206004820152601660248201527511995948185b5bdd5b9d081a5cc81c995c5d5a5c995960521b60448201526064015b60405180910390fd5b60008787868686600360009054906101000a90046001600160a01b03168b60405162000245906200090e565b62000257979695949392919062000b12565b604051809103906000f08015801562000274573d6000803e3d6000fd5b5060405163f2fde38b60e01b81523360048201529091506001600160a01b0382169063f2fde38b90602401600060405180830381600087803b158015620002ba57600080fd5b505af1158015620002cf573d6000803e3d6000fd5b50505050821515600103620002fb57620002f56001600160a01b0389163383896200057c565b620003d2565b60035460405163095ea7b360e01b81526001600160a01b038381166004830152602482018990529091169063095ea7b390604401600060405180830381600087803b1580156200034a57600080fd5b505af11580156200035f573d6000803e3d6000fd5b50506003546040516323b872dd60e01b81523060048201526001600160a01b038581166024830152604482018b905290911692506323b872dd9150606401600060405180830381600087803b158015620003b857600080fd5b505af1158015620003cd573d6000803e3d6000fd5b505050505b600154604080519182526001600160a01b038a811660208401528316917f4fd7b129e67605fe15d5e55ba0e969876d1549f11dc6aa106a702d51b27f5f4d910160405180910390a2600180549060006200042c8362000b60565b909155509098975050505050505050565b62000447620005de565b600255565b62000456620005de565b6200046260006200063a565b565b6200046e620005de565b604051600090339047908381818185875af1925050503d8060008114620004b2576040519150601f19603f3d011682016040523d82523d6000602084013e620004b7565b606091505b5050905080620004fd5760405162461bcd60e51b815260206004820152601060248201526f2a3930b739b332b9103330b4b632b21760811b604482015260640162000210565b50565b6200050a620005de565b6001600160a01b038116620005715760405162461bcd60e51b815260206004820152602660248201527f4f776e61626c653a206e6577206f776e657220697320746865207a65726f206160448201526564647265737360d01b606482015260840162000210565b620004fd816200063a565b604080516001600160a01b0385811660248301528416604482015260648082018490528251808303909101815260849091019091526020810180516001600160e01b03166323b872dd60e01b179052620005d89085906200068a565b50505050565b6000546001600160a01b03163314620004625760405162461bcd60e51b815260206004820181905260248201527f4f776e61626c653a2063616c6c6572206973206e6f7420746865206f776e6572604482015260640162000210565b600080546001600160a01b038381166001600160a01b0319831681178455604051919092169283917f8be0079c531659141344cd1fd0a4f28419497f9722a3daafe3b4186f6b6457e09190a35050565b6000620006e1826040518060400160405280602081526020017f5361666545524332303a206c6f772d6c6576656c2063616c6c206661696c6564815250856001600160a01b03166200076b9092919063ffffffff16565b90508051600014806200070557508080602001905181019062000705919062000b88565b620007665760405162461bcd60e51b815260206004820152602a60248201527f5361666545524332303a204552433230206f7065726174696f6e20646964206e6044820152691bdd081cdd58d8d9595960b21b606482015260840162000210565b505050565b60606200077c848460008562000784565b949350505050565b606082471015620007e75760405162461bcd60e51b815260206004820152602660248201527f416464726573733a20696e73756666696369656e742062616c616e636520666f6044820152651c8818d85b1b60d21b606482015260840162000210565b600080866001600160a01b0316858760405162000805919062000ba8565b60006040518083038185875af1925050503d806000811462000844576040519150601f19603f3d011682016040523d82523d6000602084013e62000849565b606091505b50915091506200085c8783838762000867565b979650505050505050565b60608315620008db578251600003620008d3576001600160a01b0385163b620008d35760405162461bcd60e51b815260206004820152601d60248201527f416464726573733a2063616c6c20746f206e6f6e2d636f6e7472616374000000604482015260640162000210565b50816200077c565b6200077c8383815115620008f25781518083602001fd5b8060405162461bcd60e51b815260040162000210919062000bc6565b610de58062000bdc83390190565b6001600160a01b0381168114620004fd57600080fd5b634e487b7160e01b600052604160045260246000fd5b803562000955816200091c565b919050565b8015158114620004fd57600080fd5b803562000955816200095a565b60008060008060008060c087890312156200099057600080fd5b86356200099d816200091c565b9550602087013567ffffffffffffffff80821115620009bb57600080fd5b818901915089601f830112620009d057600080fd5b813581811115620009e557620009e562000932565b604051601f8201601f19908116603f0116810190838211818310171562000a105762000a1062000932565b816040528281528c602084870101111562000a2a57600080fd5b8260208601602083013760006020848301015280995050505050506040870135935062000a5a6060880162000948565b92506080870135915062000a7160a0880162000969565b90509295509295509295565b60006020828403121562000a9057600080fd5b5035919050565b60006020828403121562000aaa57600080fd5b813562000ab7816200091c565b9392505050565b60005b8381101562000adb57818101518382015260200162000ac1565b50506000910152565b6000815180845262000afe81602086016020860162000abe565b601f01601f19169290920160200192915050565b600060018060a01b03808a16835260e0602084015262000b3660e084018a62000ae4565b97811660408401526060830196909652509215156080840152921660a082015260c0015292915050565b60006001820162000b8157634e487b7160e01b600052601160045260246000fd5b5060010190565b60006020828403121562000b9b57600080fd5b815162000ab7816200095a565b6000825162000bbc81846020870162000abe565b9190910192915050565b60208152600062000ab7602083018462000ae456fe60806040523480156200001157600080fd5b5060405162000de538038062000de58339810160408190526200003491620001bf565b6200003f336200011d565b428411620000a15760405162461bcd60e51b815260206004820152602560248201527f77697468647261772074696d652073686f756c64206265206d6f7265207468616044820152646e206e6f7760d81b606482015260840160405180910390fd5b600180546001600160a01b0319166001600160a01b0389161790556004620000ca878262000384565b50600280546001600160a01b03199081166001600160a01b03978816179091556003949094556005805460ff19169315159390931790925560078054909316931692909217905560065550620004509050565b600080546001600160a01b038381166001600160a01b0319831681178455604051919092169283917f8be0079c531659141344cd1fd0a4f28419497f9722a3daafe3b4186f6b6457e09190a35050565b6001600160a01b03811681146200018357600080fd5b50565b634e487b7160e01b600052604160045260246000fd5b8051620001a9816200016d565b919050565b80518015158114620001a957600080fd5b600080600080600080600060e0888a031215620001db57600080fd5b8751620001e8816200016d565b602089810151919850906001600160401b03808211156200020857600080fd5b818b0191508b601f8301126200021d57600080fd5b81518181111562000232576200023262000186565b604051601f8201601f19908116603f011681019083821181831017156200025d576200025d62000186565b816040528281528e868487010111156200027657600080fd5b600093505b828410156200029a57848401860151818501870152928501926200027b565b6000868483010152809b50505050505050620002b9604089016200019c565b945060608801519350620002d060808901620001ae565b9250620002e060a089016200019c565b915060c0880151905092959891949750929550565b600181811c908216806200030a57607f821691505b6020821081036200032b57634e487b7160e01b600052602260045260246000fd5b50919050565b601f8211156200037f57600081815260208120601f850160051c810160208610156200035a5750805b601f850160051c820191505b818110156200037b5782815560010162000366565b5050505b505050565b81516001600160401b03811115620003a057620003a062000186565b620003b881620003b18454620002f5565b8462000331565b602080601f831160018114620003f05760008415620003d75750858301515b600019600386901b1c1916600185901b1785556200037b565b600085815260208120601f198616915b82811015620004215788860151825594840194600190910190840162000400565b5085821015620004405787850151600019600388901b60f8161c191681555b5050505050600190811b01905550565b61098580620004606000396000f3fe608060405234801561001057600080fd5b50600436106100cf5760003560e01c8063715018a61161008c578063cd9c293f11610066578063cd9c293f14610181578063cdc1842414610194578063f2fde38b146101a7578063fc0c546a146101ba57600080fd5b8063715018a61461014c5780637fc0254d146101545780638da5cb5b1461015c57600080fd5b806306fdde03146100d457806317d70f7c146100f2578063295a52121461010957806345cb3dde1461012657806350baa6221461012f57806368646cf014610144575b600080fd5b6100dc6101cd565b6040516100e99190610843565b60405180910390f35b6100fb60065481565b6040519081526020016100e9565b6005546101169060ff1681565b60405190151581526020016100e9565b6100fb60035481565b61014261013d366004610891565b61025b565b005b6100fb6104cc565b61014261053e565b610142610552565b6000546001600160a01b03165b6040516001600160a01b0390911681526020016100e9565b600754610169906001600160a01b031681565b600254610169906001600160a01b031681565b6101426101b53660046108aa565b610720565b600154610169906001600160a01b031681565b600480546101da906108da565b80601f0160208091040260200160405190810160405280929190818152602001828054610206906108da565b80156102535780601f1061022857610100808354040283529160200191610253565b820191906000526020600020905b81548152906001019060200180831161023657829003601f168201915b505050505081565b60055460ff1615156001146102a95760405162461bcd60e51b815260206004820152600f60248201526e27b7363c903ab9b2903337b9102b1960891b60448201526064015b60405180910390fd5b6001546040516370a0823160e01b81523060048201526001600160a01b03909116906370a0823190602401602060405180830381865afa1580156102f1573d6000803e3d6000fd5b505050506040513d601f19601f820116820180604052508101906103159190610914565b81101561036e5760405162461bcd60e51b815260206004820152602160248201527f576974686472617720616d6f756e74206973206578636565642062616c616e636044820152606560f81b60648201526084016102a0565b6002546001600160a01b031633146103c15760405162461bcd60e51b81526020600482015260166024820152752cb7ba9030b932903737ba103bb4ba34323930bbb2b960511b60448201526064016102a0565b60035442116104015760405162461bcd60e51b815260206004820152600c60248201526b139bdd081d1a5b59481e595d60a21b60448201526064016102a0565b60015460405163a9059cbb60e01b8152336004820152602481018390526001600160a01b039091169063a9059cbb906044016020604051808303816000875af1158015610452573d6000803e3d6000fd5b505050506040513d601f19601f82011682018060405250810190610476919061092d565b50600554600654604080514281526020810185905260ff90931615159083015260608201527f1c582c419f701ccdbfecb4520486bdebb20133039845a14c499eb801b301b4ac906080015b60405180910390a150565b6001546040516370a0823160e01b81523060048201526000916001600160a01b0316906370a0823190602401602060405180830381865afa158015610515573d6000803e3d6000fd5b505050506040513d601f19601f820116820180604052508101906105399190610914565b905090565b610546610799565b61055060006107f3565b565b6002546001600160a01b031633146105a55760405162461bcd60e51b81526020600482015260166024820152752cb7ba9030b932903737ba103bb4ba34323930bbb2b960511b60448201526064016102a0565b60035442116105e55760405162461bcd60e51b815260206004820152600c60248201526b139bdd081d1a5b59481e595d60a21b60448201526064016102a0565b6001546040516370a0823160e01b81523060048201526000916001600160a01b0316906370a0823190602401602060405180830381865afa15801561062e573d6000803e3d6000fd5b505050506040513d601f19601f820116820180604052508101906106529190610914565b60055490915060ff16151560000361040157600754600654604051632142170760e11b815230600482015233602482015260448101919091526001600160a01b03909116906342842e0e90606401600060405180830381600087803b1580156106ba57600080fd5b505af11580156106ce573d6000803e3d6000fd5b50505050600554600654604080514281526020810185905260ff90931615159083015260608201527f1c582c419f701ccdbfecb4520486bdebb20133039845a14c499eb801b301b4ac906080016104c1565b610728610799565b6001600160a01b03811661078d5760405162461bcd60e51b815260206004820152602660248201527f4f776e61626c653a206e6577206f776e657220697320746865207a65726f206160448201526564647265737360d01b60648201526084016102a0565b610796816107f3565b50565b6000546001600160a01b031633146105505760405162461bcd60e51b815260206004820181905260248201527f4f776e61626c653a2063616c6c6572206973206e6f7420746865206f776e657260448201526064016102a0565b600080546001600160a01b038381166001600160a01b0319831681178455604051919092169283917f8be0079c531659141344cd1fd0a4f28419497f9722a3daafe3b4186f6b6457e09190a35050565b600060208083528351808285015260005b8181101561087057858101830151858201604001528201610854565b506000604082860101526040601f19601f8301168501019250505092915050565b6000602082840312156108a357600080fd5b5035919050565b6000602082840312156108bc57600080fd5b81356001600160a01b03811681146108d357600080fd5b9392505050565b600181811c908216806108ee57607f821691505b60208210810361090e57634e487b7160e01b600052602260045260246000fd5b50919050565b60006020828403121561092657600080fd5b5051919050565b60006020828403121561093f57600080fd5b815180151581146108d357600080fdfea2646970667358221220e739d088d921b3bcc6edfa4df40efd1171231e050a88e565da5db7c20388bdbf64736f6c63430008130033a26469706673582212209508440076230e6dd7d346b2ee1c2f70b98dcd84062be951e1a9f56014e5550164736f6c63430008130033",
  "linkReferences": {},
  "deployedLinkReferences": {}
}