{
  "_format": "hh-sol-artifact-1",
  "contractName": "tranferOwnerNFT",
  "sourceName": "contracts/tranferOwnerNFT.sol",
  "abi": [
    {
      "inputs": [
        {
          "internalType": "address",
          "name": "_basePositionManager",
          "type": "address"
        }
      ],
      "stateMutability": "nonpayable",
      "type": "constructor"
    },
    {
      "anonymous": false,
      "inputs": [
        {
          "indexed": false,
          "internalType": "uint256",
          "name": "lockerId",
          "type": "uint256"
        },
        {
          "indexed": true,
          "internalType": "address",
          "name": "lockerAddress",
          "type": "address"
        },
        {
          "indexed": false,
          "internalType": "address",
          "name": "tokenAddress",
          "type": "address"
        }
      ],
      "name": "LockerCreated",
      "type": "event"
    },
    {
      "anonymous": false,
      "inputs": [
        {
          "indexed": true,
          "internalType": "address",
          "name": "previousOwner",
          "type": "address"
        },
        {
          "indexed": true,
          "internalType": "address",
          "name": "newOwner",
          "type": "address"
        }
      ],
      "name": "OwnershipTransferred",
      "type": "event"
    },
    {
      "inputs": [],
      "name": "basePositionManager",
      "outputs": [
        {
          "internalType": "contract IBasePositionManager",
          "name": "",
          "type": "address"
        }
      ],
      "stateMutability": "view",
      "type": "function"
    },
    {
      "inputs": [
        {
          "internalType": "uint256",
          "name": "_lockAmount",
          "type": "uint256"
        },
        {
          "internalType": "address",
          "name": "_withdrawer",
          "type": "address"
        },
        {
          "internalType": "address",
          "name": "to",
          "type": "address"
        }
      ],
      "name": "createLocker",
      "outputs": [
        {
          "internalType": "address",
          "name": "",
          "type": "address"
        }
      ],
      "stateMutability": "payable",
      "type": "function"
    },
    {
      "inputs": [],
      "name": "fee",
      "outputs": [
        {
          "internalType": "uint256",
          "name": "",
          "type": "uint256"
        }
      ],
      "stateMutability": "view",
      "type": "function"
    },
    {
      "inputs": [],
      "name": "lockerCount",
      "outputs": [
        {
          "internalType": "uint256",
          "name": "",
          "type": "uint256"
        }
      ],
      "stateMutability": "view",
      "type": "function"
    },
    {
      "inputs": [],
      "name": "owner",
      "outputs": [
        {
          "internalType": "address",
          "name": "",
          "type": "address"
        }
      ],
      "stateMutability": "view",
      "type": "function"
    },
    {
      "inputs": [],
      "name": "renounceOwnership",
      "outputs": [],
      "stateMutability": "nonpayable",
      "type": "function"
    },
    {
      "inputs": [
        {
          "internalType": "address",
          "name": "newOwner",
          "type": "address"
        }
      ],
      "name": "transferOwnership",
      "outputs": [],
      "stateMutability": "nonpayable",
      "type": "function"
    }
  ],
  "bytecode": "0x60806040526000600155600060025534801561001a57600080fd5b506040516104ac3803806104ac833981016040819052610039916100b7565b61004233610067565b600380546001600160a01b0319166001600160a01b03929092169190911790556100e7565b600080546001600160a01b038381166001600160a01b0319831681178455604051919092169283917f8be0079c531659141344cd1fd0a4f28419497f9722a3daafe3b4186f6b6457e09190a35050565b6000602082840312156100c957600080fd5b81516001600160a01b03811681146100e057600080fd5b9392505050565b6103b6806100f66000396000f3fe6080604052600436106100705760003560e01c8063ccd96eb61161004e578063ccd96eb6146100da578063cd9c293f146100fe578063ddca3f431461011e578063f2fde38b1461013457600080fd5b80632e1cc43a14610075578063715018a6146100a55780638da5cb5b146100bc575b600080fd5b610088610083366004610322565b610154565b6040516001600160a01b0390911681526020015b60405180910390f35b3480156100b157600080fd5b506100ba6101ca565b005b3480156100c857600080fd5b506000546001600160a01b0316610088565b3480156100e657600080fd5b506100f060015481565b60405190815260200161009c565b34801561010a57600080fd5b50600354610088906001600160a01b031681565b34801561012a57600080fd5b506100f060025481565b34801561014057600080fd5b506100ba61014f36600461035e565b6101de565b600354604051632142170760e11b81526001600160a01b03848116600483015283811660248301526044820186905260009216906342842e0e90606401600060405180830381600087803b1580156101ab57600080fd5b505af11580156101bf573d6000803e3d6000fd5b505050509392505050565b6101d261025c565b6101dc60006102b6565b565b6101e661025c565b6001600160a01b0381166102505760405162461bcd60e51b815260206004820152602660248201527f4f776e61626c653a206e6577206f776e657220697320746865207a65726f206160448201526564647265737360d01b60648201526084015b60405180910390fd5b610259816102b6565b50565b6000546001600160a01b031633146101dc5760405162461bcd60e51b815260206004820181905260248201527f4f776e61626c653a2063616c6c6572206973206e6f7420746865206f776e65726044820152606401610247565b600080546001600160a01b038381166001600160a01b0319831681178455604051919092169283917f8be0079c531659141344cd1fd0a4f28419497f9722a3daafe3b4186f6b6457e09190a35050565b80356001600160a01b038116811461031d57600080fd5b919050565b60008060006060848603121561033757600080fd5b8335925061034760208501610306565b915061035560408501610306565b90509250925092565b60006020828403121561037057600080fd5b61037982610306565b939250505056fea2646970667358221220e967b0d539a439133ab1da5e3b8b6f74242f4f4ae1ff563476c4b454b5bcfc3b64736f6c63430008130033",
  "linkReferences": {},
  "deployedLinkReferences": {}
}